:020000040800F2
:1000000080150020791F00083B1B00084B1B0008CF
:100010005F1B0008731B0008871B0008000000001E
:100020000000000000000000000000009B1B000812
:10003000AB1B000800000000BB1B0008CB1B000826
:10004000931F0008931F0008931F0008931F0008C8
:10005000931F0008931F0008931F0008931F0008B8
:10006000931F0008931F0008931F0008931F0008A8
:10007000931F0008931F0008C3020008931F000885
:10008000931F0008931F0008931F0008931F000888
:10009000931F0008931F0008931F0008D702000851
:1000A000931F0008931F0008931F0008931F000868
:1000B000931F0008931F0008931F0008931F000858
:1000C000931F0008931F0008931F0008931F000848
:1000D000931F0008CD020008931F0008931F00081B
:1000E000931F0008931F0008931F0008931F000828
:1000F000931F0008931F0008931F0008931F000818
:10010000931F0008931F0008931F0008931F000807
:10011000931F0008931F0008931F0008931F0008F7
:10012000931F0008931F0008931F0008931F0008E7
:10013000DFF80CD004F016F900480047DB01000896
:10014000801500202A4800BF0100A0F10100FBD16A
:1001500070477CB506460C461546002060553C238A
:10016000244A25A126A0CDE9005404F02DF929A1A7
:10017000204604F0B7F87CBD0EB500F091FA00F00F
:100180009AFA00F0E6F800F021FB4FF40042234910
:10019000234800F008FA14200A21CDE900010346A3
:1001A0004FF4E1321F4902901F4800F069FE1E48DB
:1001B000AFF26101D0F8982090471C4864210022DA
:1001C0004FF40073CDE900210290194A002119482B
:1001D00001F028FAFFF7B6FF0EBD01F0C1FEFFF7F0
:1001E000CBFF01F0BFFE00F068F800BFFEE70000A3
:1001F00080969800844700086D61696E00000000D9
:1002000025733A202573282564293A202564202562
:10021000730D0A0064697361626C6500001001402F
:100220006C00002000380140800000205C010020AC
:10023000000C01401C0100200020704710B52B4825
:10024000D0F8881088472948D0F88C10884728486B
:1002500001F0A6FA002010BD1FB50446206BC1694D
:10026000884798B9206B02AA03A9436998479DF86B
:100270000D00204951F820009DF80C1052231E4A11
:10028000CDE900101DA11FA004F09EF81FBD10B500
:100290001748FFF7E1FF002010BD10B52248008885
:1002A00038B922480169884700201F490880012089
:1002B00010BD0020FCE70020704710B500F073F877
:1002C00010BD10B5094800F0F1FE10BD10B507488B
:1002D00000F0C5FE10BD10B5054801F037FA4923FE
:1002E000134A06A113A004F06FF810BD800000208F
:1002F0001C01002028000020A647000870726F63D0
:100300000000000025733A202573282564293A202F
:10031000636F64653A2025642C20616374696F6E95
:100320003A2025730D0A0000000000206C00002018
:100330009347000825733A202573282564293A201D
:10034000200D0A0000B585B0684602F0D2FD05B068
:1003500000BD0EB5784802F0A1FE7748001D008868
:1003600040F010007449091D08800121042002F0AA
:100370003AFE4FF6FF70ADF8040048F69F40ADF826
:1003800000000020ADF80600ADF8020069466A489A
:1003900002F058FF0121684803F0B0FB01216648D4
:1003A00003F0ACFA0EBD0020634924310880624896
:1003B0001030007820F001005F491031087053E0E0
:1003C0005D48243000885D490988884200D14BE0AF
:1003D00059482430008859490880FFF72DFF5648B6
:1003E0002430008856490988401A80B20A283ADD2C
:1003F000534800880A3052490880FFF71FFF4E48D3
:10040000243000884F490988401A80B264282ADDC8
:100410004C48008864304B490880FFF738FF464855
:100420002430008848490988401A80B2B0F57A7FA4
:1004300019DD4548008800F57A7043490880FFF7C8
:100440002CFF3D482430008840490988401A80B27A
:100450004EF66021884206DD3C48006808443B496E
:100460000860FFF728FF00BFAAE739480088652821
:1004700027D003DC38B163285BD10DE0672834D086
:10048000692856D145E02C4824300088314908803D
:1004900063202F49088000BF2748243000882D4959
:1004A0000988401A80B2B0F57A7F01DA00207047DF
:1004B0002148243000882849088065202449088084
:1004C00000BF1D482430008823490988401A80B2A3
:1004D000FA2801DA0020EAE71748243000881F498B
:1004E000088067201A49088000BF1348243000881C
:1004F0001A490988401A80B21E2801DA0020D6E77E
:100500000D48243000881649088069201049088069
:1005100000BF09482430008811490988401A80B278
:10052000642801DA0020C2E7002009490880012080
:10053000BDE700BF0020BAE700080040040000202B
:1005400006000020080000200A0000200C00002007
:1005500010000020120000201400002016000020CF
:100560001800002010B504464148006830B120460C
:10057000A168884700203E49086005E02046E16800
:10058000884701203A49086010BD10B50446A1888B
:10059000206802F012FB10BD10B50446A188206847
:1005A00002F009FB10BDF8B505460C4616462C6056
:1005B000AE803048A8603048E86030482861304854
:1005C000844204D10121042002F000FD2EE02D48D8
:1005D000844204D10121082002F0F8FC26E02A48D8
:1005E000844204D10121102002F0F0FC1EE02748D3
:1005F000844204D10121202002F0E8FC16E02448C6
:10060000844204D10121402002F0E0FC0EE02148A8
:10061000844204D10121802002F0D8FC06E01E486B
:10062000844203D10121801502F0D0FCA888ADF8E6
:10063000000003208DF8020010208DF803006946A9
:10064000286802F00DFAF8BD144800BF0100A0F1BF
:100650000100FBD1704710B504462046A1688847C9
:10066000FFF7F2FF2046E1688847FFF7EDFF10BD76
:100670001C000020990500088B050008650500088E
:1006800000080140000C014000100140001401402E
:1006900000180140001C0140002001408096980095
:1006A00010B500214FF0006001F0B0FC4FF4C060C5
:1006B00001F074FC10BD10B502F01EFB4FF4803049
:1006C00002F03AFB02F077FB0446012C28D11020FF
:1006D00001F09CFE022001F085FE002002F0B1FB3B
:1006E000002002F0C0FB4FF4A06002F0B3FBE00377
:1006F00002F0D3FB4FF4E011200402F085FB01204F
:1007000002F08EFB00BF392002F039FB0028FAD03E
:10071000022002F088FB00BF02F08EFB0828FBD10C
:1007200010BD012080F3138800BF00BF0648006899
:1007300000F4E06005490843001D03490860BFF369
:10074000408F00BF00BFFEE70CED00E00000FA059F
:100750001FB50121480402F046FC4FF4E13000903F
:100760000C20ADF80A000020ADF80C00ADF8080030
:10077000ADF80400ADF806006946364803F0DFFB2B
:100780004021344803F04FFD0121324803F063FC5F
:100790001FBD08B50121042002F018FC0420ADF8AB
:1007A000000018208DF8030003208DF80200694630
:1007B000294802F055F90820ADF8000004208DF812
:1007C00003006946244802F04BF908BD10B5FFF755
:1007D000E0FFFFF7BDFF1A23204A21A122A003F06A
:1007E000F3FD10BD2DE9F04104460D4627463CB906
:1007F0004423254A1AA125A003F0E6FDBDE8F081B7
:10080000B5F5803F06D349231F4A15A126A003F062
:10081000DBFDF3E7002605E017F8011B2BA003F032
:10082000D3FD761CAE42F7D329A003F0CDFD00BF67
:10083000E4E770B504460D4600BF8021054803F08B
:10084000E5FC0028F9D0E1B2024803F071FC204633
:1008500070BD00000044004000080140B24700089D
:100860007072696E7400000025733A202573282584
:1008700064293A2057656C636F6D6520746F20534F
:10088000544D3332210D0A00BD47000825733A202C
:100890002573282564293A20617272617920697371
:1008A000206E756C6C0D0A0025733A20257328257F
:1008B00064293A20617272617920697320746F6FC4
:1008C0006F206C6F6E670D0A000000002578200015
:1008D0000D0A000070B504460D4616464CB940F2AC
:1008E0008D13F64AF6A1F8A003F06EFD6FF0150027
:1008F00070BD3420005D48B14FF4C973EF4AF0A1D8
:10090000F7A003F061FD6FF00A00F1E74DB940F286
:100910009713EA4AEAA1F9A003F056FD6FF015001B
:10092000E6E74EB94FF4CE73E44AE5A1FAA003F02E
:100930004BFD6FF01500DBE7012134200155E06924
:10094000C560E0694660E06901F063FC0020CFE724
:1009500010B5044694F84400B0B1002084F8440077
:10096000F34AF44904F14800236E9847F0480278AE
:10097000F04801682046FFF7ADFF28B11823EE4A82
:10098000CFA1EEA003F020FD10BD70B504460026F7
:1009900094F8450020B3002084F8450019E0802039
:1009A0000359E34AE34904F168009847D4F89400F6
:1009B00038B1DF480278DF48D4F894300168204627
:1009C0009847701CC6B2DB4805680020D8490978F2
:1009D00068548420015904F1680088470028DED05B
:1009E00070BD70B504460E46154604F14800616EB0
:1009F000884730B1EAB231462046FFF76BFF00B9B5
:100A000009E0EAB2314604F14800A36D984701209D
:100A100084F8440000BF29463046FFF7E3FE70BD6E
:100A2000C0F89410704702689188026811884A1CC7
:100A300091B2704710B58CB00446C849206888420E
:100A400010D10121084602F0B4FAC549E161C44958
:100A5000143121620E2020764FF40051E1624910DA
:100A6000216340E0BF492068884211D10121084636
:100A700002F09FFABA493C31E161B949283121625B
:100A8000112020764FF00071E162491021632AE0C5
:100A9000B5492068884210D10121084602F089FA40
:100AA000AF492839E161AE49143921620C20207622
:100AB0002021E1621021216315E0AC4920688842C1
:100AC00010D10121022002F074FAA949E161A8497C
:100AD000283921623B2020764FF40031E162491031
:100AE000216300E000BFE06901F0C6FA2068001D44
:100AF0000190606A029010200390002004900590FD
:100B00008020069000200790089009904FF4005034
:100B10000A9000200B9001A9E06901F04FFB01222F
:100B20000221E06901F081FB0021E06901F071FB25
:100B3000206A01F0A1FA2068001D0190606A02900D
:100B400000200390A06A0490002005908020069069
:100B500000200790089009904FF440500A90002020
:100B60000B9001A9206A01F029FB00220221206AD2
:100B700001F05BFB00220821206A01F056FB0122F4
:100B80008021206803F098FA01224021206803F0B8
:100B900093FA0121206A01F03CFB2046FFF743FF56
:100BA000012240F22441206803F061FA207E8DF892
:100BB000000000208DF801008DF8020001208DF862
:100BC0000300684601F0EFF90021342001550CB014
:100BD00010BD10B586B0044660492068884206D131
:100BE0000121880302F0F2F9252020752AE05D49F1
:100BF0002068884206D10121480402F0F4F9262039
:100C000020751FE058492068884206D101218804D8
:100C100002F0E9F92720207514E054492068884241
:100C200006D10121C80402F0DEF93420207509E064
:100C300050492068884205D10121080502F0D3F906
:100C400035202075606802900C20ADF8120000205D
:100C5000ADF81400ADF81000ADF80C00ADF80E00C2
:100C600002A9206803F06BF94021206803F0DBFA49
:100C7000002240F22551206803F0F9F9002240F2E9
:100C80002661206803F0F3F9002240F22441206835
:100C900003F0EDF9207D8DF8040000208DF80500AB
:100CA0008DF8060001208DF8070001A801F07BF9FE
:100CB0000121206803F0CFF906B010BDD447000829
:100CC000756172740000000025733A202573282591
:100CD00064293A206E756C6C20756172740D0A007F
:100CE00025733A202573282564293A20646D6120F4
:100CF000697320627573790D0A00000025733A202C
:100D00002573282564293A206E756C6C2061646413
:100D1000726573730D0A000025733A202573282528
:100D200064293A206E756C6C206C656E0D0A0000AB
:100D30002400002020000020C247000825733A202C
:100D40002573282564293A20646D612077726974BF
:100D500065206572726F720D0A0000000038014054
:100D6000440002400044004000480040004C004065
:100D7000580402400050004038B50446D34920686A
:100D800088420CD10121042002F020F9D048A06053
:100D90000146E160411521820115618246E0CD499D
:100DA000206888420CD10121042002F00FF9C848C4
:100DB000A0600146E160042121820821618235E0C2
:100DC000C549206888420CD10121082002F0FEF8B4
:100DD000C248A0600146E16001152182C114618210
:100DE00024E0BF49206888420CD10121102002F084
:100DF000EDF8BC48A0600146E16001152182C114F4
:100E0000618213E0B849206888420FD10121102087
:100E100002F0DCF80121202002F0D8F8B148A060EF
:100E2000B249E1608114218204216182208AADF8F7
:100E3000000018208DF8030003208DF80200694699
:100E4000A06801F00DFE608AADF8000004208DF866
:100E500003006946E06801F003FE38BD10B50446A2
:100E6000002084F838002046FFF786FF2046FFF771
:100E7000B0FE2046FFF7DEFD012084F8380010BDEB
:100E80002DE9F04704460E4617469846DDE9099AD3
:100E9000089D67602660AFF24750C4F88800AFF243
:100EA0001550C4F88C00AFF2C540C4F89000AFF202
:100EB0008F40C4F89800284603F02EFC6062A562BB
:100EC000012134200155EAB208F0FF0104F1480085
:100ED00000F012FA0AF0FF0209F0FF0104F16800C5
:100EE00000F00AFA2046FFF7B9FFBDE8F08738B5F1
:100EF00004460021E06901F08CF90021206A01F02C
:100F000088F900220221E06901F08FF90022022114
:100F1000206A01F08AF900220821206A01F085F98F
:100F200000228021206803F0C7F8002240212068B9
:100F300003F0C2F8207E8DF8000000208DF801003B
:100F40008DF802008DF80300684601F02CF838BDDA
:100F500038B50446002240F22551206803F087F896
:100F6000002240F22661206803F081F8002240F25E
:100F70002441206803F07BF840F26551206803F0BB
:100F800052F9207D8DF8000000208DF801008DF8C9
:100F900002008DF80300684601F005F80021206882
:100FA00003F059F849492068884205D100214FF4DF
:100FB000804002F00BF826E046492068884205D1BF
:100FC00000214FF4003002F00EF81CE04249206886
:100FD000884205D100214FF4802002F004F812E08D
:100FE0003F492068884205D100214FF4002001F0DC
:100FF000FAFF08E03C492068884204D100214FF400
:10100000801001F0F0FF38BD38B50446208AADF8F5
:10101000000004208DF803006946A06801F020FD5F
:10102000608AADF8000004208DF803006946E0688E
:1010300001F016FD38BD10B5044694F8380000B92B
:1010400010BD2046FFF7E0FF2046FFF781FF204656
:10105000FFF74DFF002084F8380000BFF0E710B51F
:10106000044640F22441206803F0E6F8E8B100218C
:10107000206A01F0CEF8206A01F0E2F8A16A081AAD
:101080002064A16A206A41600121206A01F0C1F850
:101090002046FFF7C8FC94F8402004F16800A36FD5
:1010A000616A9847012084F8450010BD10B50446D8
:1010B000E06A01F0DCF8206B01F0F7F80021E0694C
:1010C00001F0A7F800213420015510BD003801407F
:1010D000000801400044004000480040000C01406E
:1010E000004C00400010014000500040001401403E
:1010F00010B504462CB9D023AE4AAFA1B0A003F07E
:1011000063F9A07808B9012010BD0020FCE72DE9A3
:10111000F04104460D46164600274CB9AC23AF4AB1
:10112000A5A1A7A003F050F96FF01500BDE8F0816C
:1011300045B9B123A94AA0A1A9A003F045F96FF0D0
:101140001500F3E746B9B623A44A9BA1ABA003F070
:101150003BF96FF01500E9E72046FFF7C9FF40B102
:10116000BB239E4A94A1ACA003F02EF96FF00A00B5
:10117000DCE76278A168207B02FB001028606078C1
:10118000411C61706168095C31706078E178884267
:1011900001D100206070A078401EA0703846C5E7DD
:1011A0002DE9F04104460E46154600274CB981232F
:1011B000A04A81A182A003F007F96FF01500BDE8F5
:1011C000F08146B986239B4A7BA19BA003F0FCF8E3
:1011D0006FF01500F3E745B98B23964A76A187A0F7
:1011E00003F0F2F86FF01500E9E72046FFF780FF03
:1011F00040B190238F4A70A187A003F0E5F86FF00B
:101200000A00DCE761786068405C287094F801C0EF
:10121000A368207B0CFB00312A78304603F050F89D
:101220006078401C60706078E178884201D10020CD
:101230006070A078401EA0703846C0E710B5044624
:101240002CB9D823834A5CA15DA003F0BDF8A07837
:10125000E178884201D1012010BD0020FCE7F8B5FB
:1012600004460E461546002744B956237A4A52A131
:1012700053A003F0A9F86FF01500F8BD46B95B2341
:10128000754A4DA16CA003F09FF86FF01500F4E7CC
:10129000012D01DBFF2D09DD60236F4A46A16FA000
:1012A000009503F091F86FF01500E6E72046FFF790
:1012B000C5FF40B16523684A3FA176A003F084F8DA
:1012C0006FF00A00D9E72378A268217B03FB012095
:1012D0002A46314602F0F4FF2078411C21706168F3
:1012E0000D542078E178884201D100202070A07848
:1012F000401CA0703846C0E7F7B5044615460026E6
:1013000044B922236A4A2CA12DA003F05DF86FF0A6
:101310001500FEBD9DF80400012803DB9DF80400C4
:10132000FF2808DD2723624A23A162A003F04CF8BE
:101330006FF01500EDE7012D01DBFF2D08DD2C23FB
:101340005B4A1DA166A003F03FF86FF01500E0E7CF
:10135000002020706070A0709DF80400E0706B4861
:1013600020616B4860616B48A061AFF27B20E06157
:1013700025739DF8041001FB05F003F0CDF9A06082
:10138000A06840B93E234A4A0BA163A003F01CF8B1
:101390006FF00B00BDE79DF8040003F0BDF960603D
:1013A000606828B9A06803F08FF96FF00B00B0E710
:1013B0003046AEE70B4800086669666F0000000023
:1013C00025733A202573282564293A206669666FBB
:1013D000206973206E756C6C0D0A0000FE470008D2
:1013E00025733A202573282564293A2061646420F6
:1013F0006973206E756C6C0D0A00000025733A202D
:101400002573282564293A206C656E206973206E47
:10141000756C6C0D0A00000025733A202573282591
:1014200064293A206669666F20697320656D70745F
:10143000790D0A00F547000825733A202573282501
:1014400064293A2064617461206973206E756C6C44
:101450000D0A000014480008ED47000825733A20E3
:101460002573282564293A20646174615F6C656E78
:101470002073686F756C642062652031202D2032E6
:1014800035352C206275742069733A2025640D0A65
:101490000000000025733A202573282564293A208E
:1014A0006669666F2069732066756C6C0D0A0000B2
:1014B000E347000825733A202573282564293A203C
:1014C0006669666F5F6C656E2073686F756C64200B
:1014D00062652031202D203235350D0A00000000D4
:1014E00025733A202573282564293A2064617461A4
:1014F0005F6C656E2073686F756C64206265203167
:10150000202D203235350D0A000000005F12000842
:10151000A11100080F11000825733A202573282512
:1015200064293A204F7574206F66206D656D6F7267
:10153000792E0D0A0000000038B50446F648006810
:10154000009020788DF80000206B02226946036924
:10155000984738BD38B50446EF48001D0068009034
:1015600020788DF80000206B0222694603699847B5
:1015700038BD38B50446E848083000680090207847
:101580008DF80000206B022269460369984738BD38
:1015900010B50446022214212046FFF7ADFE10BD0F
:1015A0007CB50446606800F02FFA0121084601F07E
:1015B0000DFD2089ADF80400A07A18B128208DF81F
:1015C000070002E048208DF8070001A9606801F0DB
:1015D00047FA208900F04AFA0546606800F0EEF903
:1015E0000646294601F050FB052D03DAA81D40B23E
:1015F000207408E00A2D02DA1720207403E0102D71
:1016000001DA28202074207C8DF8000000208DF85D
:1016100001008DF8020001208DF80300684600F0FB
:10162000C2FC7CBD2DE9F04704468A461546994622
:10163000DDE90978089E4CB93D23B84AB8A1B9A0A4
:1016400002F0C2FE6FF01500BDE8F08745B94623F1
:10165000B24AB3A1B3A002F0B7FE6FF01500F3E7F2
:1016600056B1012E08D04B23AC4AADA1B2A002F076
:10167000ABFE6FF01500E7E7B7F57A7F08DD502382
:10168000A64AA7A1ACA002F09FFE6FF01500DBE711
:10169000B8F1000F08D15523A04AA1A1A1A002F0E2
:1016A00093FE6FF01500CFE784F800A06560A4F802
:1016B0000890A6720FB1E76001E06420E060404648
:1016C000FFF766FFC4F830802046FFF769FF01206E
:1016D0002076002060764FF4FA606062002084F883
:1016E0002C00AFF2AB106063AFF29710A063AFF2C3
:1016F0007D10E0630020A7E77CB504460D462089F5
:10170000009000208DF804004DB1A07A18B1082097
:101710008DF805000CE00C208DF8050008E0A07A9B
:1017200018B10C208DF8050002E008208DF80500A6
:1017300001208DF80600684600F0D4FD7CBD854987
:10174000096802899143834A1160704738B504469D
:10175000208900F02DFE012807D16061208900F06A
:1017600038FE2046FFF7EBFF09E07A4814300068A6
:10177000B923794A6AA1009078A002F025FE38BD0D
:1017800070B504462189606801F0FBF90546A07A2E
:1017900008B1284670BD0DB90120FBE70020F9E72C
:1017A00010B50446207E062879D2DFE800F0A603B3
:1017B0000A1C567901212046FFF79EFF0220207661
:1017C00000BF606970B194F9100000F0EBF80020E0
:1017D000606194F9100000F093F80020E06120624D
:1017E000032020768AE02046FFF7CAFF28B1E0698F
:1017F0000A30E0610020206204E0206A0A302062A2
:101800000020E061E168E069884215D9606B10B1A1
:101810002046616B884700212046FFF76DFF606A14
:1018200038B154480088616A0844A062012084F8F5
:101830002C00042020760FE0E168206A88420BD952
:10184000606B10B12046616B8847A06B10B12046D9
:10185000A16B88470120207650E0606970B194F94F
:10186000100000F09FF80020606194F9100000F073
:1018700047F80020E0612062052020763D49098874
:10188000A06A88420AD894F82C0038B1002084F865
:101890002C00E06B10B12046E16B88472EE02CE075
:1018A0002046FFF76DFF28B1E0690A30E0610020B3
:1018B000206204E0206A0A3020620020E061E168D2
:1018C000E06988420DD94FF48D732B4A14A12BA0E7
:1018D00002F07AFD00212046FFF70EFF042020765B
:1018E0000AE0E168206A884206D9A06B10B1204660
:1018F000A16B88470120207600E000BF00BF10BD2B
:1019000000F01F020121914042094FF0E02303EB58
:101910008202C2F800117047204800082A480008D7
:101920006B65790025733A202573282564293A20B0
:101930006E756C6C0D0A000025733A2025732825FE
:1019400064293A2077726F6E672076616C75650D39
:101950000A000000000401403348000825733A20C3
:101960002573282564293A207975652025780D0A84
:1019700000000000240800404348000825733A2076
:101980002573282564293A20544849532073686FE9
:10199000756C64206E6F742068617070656E0D0ADE
:1019A0000000000000F01F0201219140024A43099B
:1019B00042F823107047000080E100E001465448DF
:1019C000814201D1002070475248814201D101205B
:1019D000F9E75148814201D10220F4E74F488142A2
:1019E00001D10320EFE74E48814201D10420EAE70C
:1019F0004C48814201D10520E5E74B48814201D1A5
:101A00000620E0E700BFDEE710B504462046FFF7FA
:101A1000D5FF072828D2DFE800F004090E13181DAF
:101A200022000121042001F0D1FA00BF0121082089
:101A300001F0CCFA00BF0121102001F0C7FA00BF6D
:101A40000121202001F0C2FA00BF0121402001F055
:101A5000BDFA00BF0121802001F0B8FA00BF0121CA
:101A6000080201F0B3FA00BF00BF10BD0146B1F596
:101A7000807F3BD012DC102930D008DC012925D032
:101A8000022925D0042925D008293FD124E0202986
:101A900026D0402926D0802938D125E0B1F5805FB5
:101AA0002CD009DCB1F5007F22D0B1F5806F21D0B8
:101AB000B1F5006F2AD11FE0B1F5005F20D0B1F57C
:101AC000804F1FD0B1F5004F20D11DE0002070479E
:101AD0000120FCE70220FAE70320F8E70420F6E7FC
:101AE0000520F4E70620F2E70720F0E70820EEE7FC
:101AF0000920ECE70A20EAE70B20E8E70C20E6E7FC
:101B00000D20E4E70E20E2E70F20E0E70020DEE70B
:101B100000080140000C0140001001400014014089
:101B200000180140001C0140002001402B4800BF6C
:101B30000100A0F10100FBD1704710B53823284AFD
:101B400028A12BA002F040FC10BD07E04523314A3C
:101B500024A131A002F038FCFFF7E8FFF6E707E028
:101B60005423384A1FA138A002F02EFCFFF7DEFFF5
:101B7000F6E707E063233F4A1AA13FA002F024FCE6
:101B8000FFF7D4FFF6E707E07223464A15A146A007
:101B900002F01AFCFFF7CAFFF6E710B57E234D4AA4
:101BA00010A14DA002F010FC10BD10B58823534ABF
:101BB0000CA153A002F008FC10BD10B592235B4AA3
:101BC00008A15BA002F000FC10BD10B59C23624A86
:101BD00004A162A002F0F8FB10BD000080969800FE
:101BE0005548000849525148616E646C65720000A6
:101BF00025733A202573282564293A203D3D3D3D33
:101C00003D3D3D3D3D3D4E4D495F48616E646C65D7
:101C1000720D0A006148000825733A2025732825B3
:101C200064293A203D3D3D3D3D3D3D3D3D3D4861C2
:101C300072644661756C745F48616E646C65720DA8
:101C40000A0000007348000825733A2025732825F0
:101C500064293A203D3D3D3D3D3D3D3D3D3D4D6589
:101C60006D4D616E6167655F48616E646C65720D94
:101C70000A0000008548000825733A2025732825AE
:101C800064293A203D3D3D3D3D3D3D3D3D3D427554
:101C9000734661756C745F48616E646C65720D0AA1
:101CA000000000009648000825733A202573282577
:101CB00064293A203D3D3D3D3D3D3D3D3D3D557313
:101CC0006167654661756C745F48616E646C6572CE
:101CD0000D0A0000A948000825733A20257328251D
:101CE00064293A203D3D3D3D3D3D3D3D3D3D535602
:101CF000435F48616E646C65720D0A00B548000868
:101D000025733A202573282564293A203D3D3D3D21
:101D10003D3D3D3D3D3D44656275674D6F6E5F489D
:101D2000616E646C65720D0A00000000C648000810
:101D300025733A202573282564293A203D3D3D3DF1
:101D40003D3D3D3D3D3D50656E6453565F48616E7F
:101D5000646C65720D0A0000D548000825733A20AE
:101D60002573282564293A203D3D3D3D3D3D3D3DBF
:101D70003D3D5379735469636B5F48616E646C6574
:101D8000720D0A000CB50020019000906B480068AD
:101D900040F480306949086000BF6848006800F47A
:101DA000003000900198401C0190009818B90198EB
:101DB000B0F5A06FF1D16148006810F4003F02D087
:101DC0000120009001E0002000900098012842D1FD
:101DD0005B48006840F010005949086008460068F8
:101DE00020F0030008600846006840F00200086028
:101DF0005248406851494860084640684860084673
:101E0000406840F4806048600846406820F47C10D8
:101E100048600846406840F4E8104860084600689A
:101E200040F08070086000BF4448006810F0007FF8
:101E3000FAD04248406820F0030040494860084614
:101E4000406840F00200486000BF3C48406800F035
:101E50000C000828F9D10CBD10B5FFF793FF10BD99
:101E600010B53648006840F0010034490860084663
:101E700040683449084031494860084600683249A2
:101E800008402E4908600846006820F48020086059
:101E90000846406820F4FE0048604FF41F00886048
:101EA000FFF7DAFF4FF000602849086010BD10B559
:101EB000002100200022214B5B6803F00C0121B1BE
:101EC000042906D0082928D107E0214B214C2360A2
:101ED00027E01F4B1F4C236023E0184B5B6803F483
:101EE0007010164B5B6803F48032022303EB9040C2
:101EF00022B9194B4343174C23600DE00F4B5B682D
:101F000013F4003F04D0144B4343124C236003E00E
:101F10000F4B43430F4C236003E00D4B0D4C2360EC
:101F200000BF00BF054B5B68C3F303130B4CE15CC0
:101F3000084B1B68CB40074C236010BD00100240CB
:101F4000002002400000FFF8FFFFF6FE08ED00E071
:101F500000127A003800002000093D003C000020FB
:101F600072B6704762B67047EFF3108072B6704772
:101F700080F31088704700000648804706480047F5
:101F8000FEE7FEE7FEE7FEE7FEE7FEE7FEE7FEE729
:101F9000FEE7FEE7611E00083101000831490143F8
:101FA000314A1160704770B5002100230F22C478B8
:101FB0000CB32D4C246804F4E064C4F5E064210AF9
:101FC000C1F10403CA40447804FA03F18478144050
:101FD00021430901254C0678A155047804F01F051A
:101FE0000124AC4005786D114FF0E02606EB850525
:101FF000C5F8004109E0047804F01F050124AC4055
:102000001B4D0678761145F8264070BD194A0A40E6
:102010000243154B1B1F1A60704739B1124A121D3B
:1020200012680243104B1B1D1A6006E00E4A121D77
:10203000126882430C4B1B1D1A607047042808D19C
:102040004FF0E021096941F004014FF0E0221161F5
:1020500007E04FF0E021096921F004014FF0E02290
:10206000116170470000FA050CED00E000E400E0AB
:1020700080E100E080FFFF1F01684FF6FE72114013
:1020800001600021016041608160C1608C4988422B
:1020900008D18B490839496841F00F01884A083A4C
:1020A00051608AE086491431884208D18449083950
:1020B000496841F0F001824A083A51607DE0804968
:1020C0002831884208D17E490839496841F4706155
:1020D0007B4A083A516070E079493C31884208D126
:1020E00077490839496841F47041754A083A5160A6
:1020F00063E073495031884208D171490839496811
:1021000041F470216E4A083A516056E06C496431DE
:10211000884208D16A490839496841F47001684A1F
:10212000083A516049E066497831884208D16449EB
:102130000839496841F07061614A083A51603CE0F1
:102140006049884206D1011F096841F00F01021F52
:10215000116032E05B491431884208D15949091FA6
:10216000096841F0F001574A121F116025E05549F6
:102170002831884208D15349091F096841F4706128
:10218000504A121F116018E04E493C31884208D174
:102190004C49091F096841F470414A4A121F1160F5
:1021A0000BE048495031884207D14649091F096868
:1021B00041F47021434A121F1160704710B500228C
:1021C000026847F6F0739A430C6A8B6823430C69E4
:1021D00023434C6923438C692343CC6923434C6AD2
:1021E00023438C6A23431A430260CB6843600B6825
:1021F00083604B68C36010BD002101604160816055
:10220000C160016141618161C161016241628162BC
:10221000704721B1026842F00102026004E00268E6
:102220004FF6FE731A40026070471AB103680B4301
:10223000036002E003688B430360704741607047AE
:102240000146486880B2704701460020002211F024
:10225000805F03D01B4B083B1A6802E0184B083B19
:102260001A680A4201D0012000E00020704710F0F7
:10227000805F03D01349091F086002E01049083944
:102280004860704701460020002211F0805F03D0B3
:102290000C4B083B1A6802E0094B083B1A680A42DB
:1022A00001D0012000E00020704710F0805F03D0D3
:1022B0000449091F086002E0014908394860704775
:1022C0000800024008040240002044490860091D3B
:1022D0000860091D0860091D086041483F49143124
:1022E0000860704700213D498279002A3AD00A46A9
:1022F000126803689A430B461A600A1D1268036845
:102300009A430B1D1A60027911440A6803681A4344
:102310000A60324A0832126803689A432F4B083326
:102320001A601A1D126803689A432C4B0C331A600A
:102330004279102A0ED11A1F126803681A43274BDC
:1023400008331A601A1D126803681A43234B0C33B2
:102350001A600DE02149427911440A6803681A4362
:102360000A6005E0027911440A6803689A430A602A
:1023700070470021016001710C21417100218171C0
:1023800070471649103109680143144A1032116030
:10239000704701460020114A143212680A4201D0E7
:1023A000012000E0002070470C491431086070479C
:1023B000014600200022094B1B6803EA0102074B7B
:1023C00014331B680B4202D00AB1012000E0002048
:1023D0007047024914310860704700000004014052
:1023E000FFFF0F0001460020FE4A106800F0380091
:1023F000084310607047FB49096821F00801F94A59
:10240000116011460968014311607047F549096878
:1024100021F01001F34A116011460968014311606F
:102420007047F148EF494860F04848607047EE480F
:10243000EC494860ED4848607047EA48006940F060
:102440008000E84908617047E648006940F0800074
:10245000E449086170470420E249C96811F0010F9E
:1024600001D001200EE0DF49C96811F0040F01D04E
:10247000022007E0DB49C96811F0100F01D00320EA
:1024800000E00420704700B502460423FFF7E3FF95
:10249000034603E0FFF7DFFF0346521E012B01D185
:1024A000002AF7D102B90523184600BD30B504460D
:1024B00004254FF43020FFF7E6FF0546042D17D121
:1024C000C848006940F00200C649086108464461F6
:1024D000006940F0400008614FF43020FFF7D3FF5F
:1024E0000546C048006941F6FD710840BD490861D4
:1024F000284630BD10B504244FF43020FFF7C3FF49
:102500000446042C16D1B748006940F00400B549D0
:1025100008610846006940F0400008614FF430202F
:10252000FFF7B1FF0446AF48006941F6FB71084070
:10253000AC490861204610BD00B502460423FFF7F0
:102540008AFF034603E0FFF786FF0346521E012B76
:1025500001D1002AF7D102B90523184600BD10B5F4
:1025600004244FF43020FFF7E7FF0446042C16D173
:102570009C48006940F004009A49086108460069D7
:1025800040F0400008614FF43020FFF7D5FF0446CB
:102590009448006941F6FB71084092490861204661
:1025A00010BD00208F49C96911F0020F01D0012030
:1025B00000E00020704730B5A5250424FFF7F1FFA7
:1025C00000B100254FF43020FFF75DFF0446042CD6
:1025D0003AD1854883498860844888600846006904
:1025E00040F0200008610846006940F040000861A2
:1025F0004FF43020FFF747FF0446042C1BD17948E5
:10260000006941F6DF7108407649086108460069B3
:1026100040F01000086176480580E002FFF733FFC4
:102620000446052C10D06F48006941F6EF71084050
:102630006C49086108E0052C06D06A48006941F63B
:10264000EF71084067490861204630BD78B50646FD
:102650000C46042500200090E802FFF714FF054611
:10266000042D24D15F48006940F001005D490861F4
:102670003480E802FFF707FF0546042D10D1B01C97
:102680000090200C00990880E802FFF7FCFE054648
:102690005448006941F6FE7108405249086106E05D
:1026A0005048006941F6FE7108404E4908612846CD
:1026B00078BD70B504460D460426F002FFF7E3FE30
:1026C0000646042E11D14748006940F001004549F3
:1026D00008612580F002FFF7D6FE064641480069F2
:1026E00041F6FE7108403F490861304670BD70B543
:1026F00005460E460424E002FFF7C5FE0446042CFE
:1027000017D13948374988603848886008460069D9
:1027100040F0100008612E80E002FFF7B4FE04468E
:10272000052C06D02F48006941F6EF7108402D496D
:102730000861204670BD2DE9F04304464FF6FF7650
:102740003746B046B1460425E443E6B2C4F3072752
:10275000C4F307484FEA1469E802FFF794FE054600
:10276000042D49D120481F498860204888600846C8
:10277000006940F010000861FF2E06D01C480830A8
:102780000680E802FFF77FFE0546042D08D1FF2FE3
:1027900006D017480A300780E802FFF774FE0546A6
:1027A000042D0AD1B8F1FF0F07D011480C30A0F862
:1027B0000080E802FFF767FE0546042D0AD1B9F153
:1027C000FF0F07D00A480E30A0F80090E802FFF78C
:1027D0005AFE0546052D0FD00248006941F6EF71FB
:1027E000084007E00020024023016745AB89EFCD98
:1027F00000F8FF1F664908612846BDE8F08330B540
:10280000054604244FF43020FFF73DFE0446042C17
:1028100041D160485E4988605F4888600846006929
:1028200040F0200008610846006940F0400008615F
:102830004FF43020FFF727FE0446042C22D15448E1
:10284000006941F6DF710840514908610846006996
:1028500040F0100008611DB100205049088002E0DE
:10286000A5204E4908804FF43020FFF70CFE0446A7
:10287000052C10D04648006941F6EF7108404449E4
:10288000086108E0052C06D04148006941F6DF7177
:1028900008403F490861204630BDF0B505460E4668
:1028A000174604243B483A4988603B488860E00268
:1028B000FFF7E9FD0446042C19D13548006940F0C2
:1028C00010003349086147F0F8003043284333498A
:1028D000891C0880E002FFF7D6FD0446052C06D0CF
:1028E0002B48006941F6EF710840294908612046EC
:1028F000F0BD2748C069800870472548006A7047C6
:1029000000202349096811F0200F01D0012000E0C8
:102910000020704729B11E4A126902431C4B1A61FC
:1029200004E01B4A12698243194B1A617047014641
:102930000020012908D1164AD26912F0010F01D0F6
:10294000012008E0002006E0114AD2680A4201D0C6
:10295000012000E0002070470D49C8607047042046
:102960000B49C96811F0010F01D001200EE00849A0
:10297000C96811F0040F01D0022007E00449C968BA
:1029800011F0100F01D0032000E004207047000078
:102990000020024023016745AB89EFCD00F8FF1FFF
:1029A00010B50446CA48844208D10121042000F031
:1029B00027FB0021042000F023FB46E0C5488442A9
:1029C00008D10121082000F01BFB0021082000F0A5
:1029D00017FB3AE0C048844208D10121102000F0E2
:1029E0000FFB0021102000F00BFB2EE0BB488442BF
:1029F00008D10121202000F003FB0021202000F05D
:102A0000FFFA22E0B648844208D10121402000F0BC
:102A1000F7FA0021402000F0F3FA16E0B1488442B2
:102A200008D10121802000F0EBFA0021802000F085
:102A3000E7FA0AE0AC48844207D10121801500F092
:102A4000DFFA0021A01500F0DBFA10BD10B501215E
:102A5000084600F0D5FA0021012000F0D1FA10BD9F
:102A60002DE9F04102460025002600200023002425
:102A7000002791F803C00CF00F0591F803C01CF07B
:102A8000100F03D091F802C04CEA050591F800C080
:102A9000BCF1000F31D0146800202BE04FF0010C86
:102AA0000CFA00F3B1F800C00CEA03069E4220D1F4
:102AB00083004FF00F0C0CFA03F7BC4305FA03FC3C
:102AC0004CEA040491F803C0BCF1280F06D14FF082
:102AD000010C0CFA00FCC2F814C00AE091F803C023
:102AE000BCF1480F05D14FF0010C0CFA00FCC2F804
:102AF00010C0401C0828D1D31460B1F800C0BCF14C
:102B0000FF0F34DD546800202EE000F1080C4FF078
:102B1000010808FA0CF3B1F800C00CEA03069E4263
:102B200021D183004FF00F0C0CFA03F7BC4305FAD8
:102B300003FC4CEA040491F803C0BCF1280F05D152
:102B400000F1080C08FA0CF8C2F8148091F803C0E0
:102B5000BCF1480F07D100F1080C4FF0010808FA4A
:102B60000CF8C2F81080401C0828CED35460BDE891
:102B7000F0814FF6FF710180022181700421C17044
:102B800070470246002093680B4201D0012000E00C
:102B9000002070470146886880B2704702460020D6
:102BA000D3680B4201D0012000E0002070470146AD
:102BB000C86880B2704701617047416170470AB1CF
:102BC000016100E041617047C16070474FF480329D
:102BD0000A4382618161826182698269704702462B
:102BE0000020424B18684FF68073184040EA0210EC
:102BF00008433E4B186070473D49C8617047F0B5C7
:102C00000A46002300240021002500F00046B6F10A
:102C1000004F02D1354EF16901E0344E7168C0F3C6
:102C2000034583B200F44016B6F5401F08D121F0E9
:102C300070612E4E766826F070662C4F7E6012E032
:102C400000F48016B6F5801F06D1032606FA05F4B7
:102C5000A14341F0706106E0460D360103FA06F625
:102C6000B14341F0706122B1460D360103FA06F618
:102C7000314300F00046B6F1004F02D11B4EF16126
:102C800001E01A4E7160F0BD30B500228B071C0FB9
:102C90000F2303FA04F2154B08338C1053F8243039
:102CA0009343124C08348D1044F8253023468C1081
:102CB00053F824308C07240F00FA04F423430B4C00
:102CC00008348D1044F8253030BD0A49086070473B
:102CD00000080140000C01400010014000140140B8
:102CE00000180140001C014000200140000001408C
:102CF00000002042DC002042DD48006840F0010076
:102D0000DB49086008464068DA490840D84948600D
:102D100008460068D8490840D54908600846006858
:102D200020F4802008600846406820F4FE004860D7
:102D30004FF41F0088607047CD49096821F4803145
:102D4000CB4A11601146096821F480211160B0F569
:102D5000803F03D0B0F5802F0ED106E0C44909684A
:102D600041F48031C24A116007E0C149096841F469
:102D7000A021BF4A116000E000BF00BF704710B53E
:102D800001460022002300204A11012A02D1B84C3A
:102D9000236806E0022A02D1B54C236A01E0B44C54
:102DA000636A01F01F02012494401C4201D00120FB
:102DB00000E0002010BD38B5002000900024002560
:102DC00000BF3120FFF7DBFF05460098401C009054
:102DD0000098B0F5A06F01D0002DF2D03120FFF7A0
:102DE000CEFF08B1012400E00024204638BD014692
:102DF00000209F4A106820F0F80040EAC1001060EF
:102E000070479E490860704702460020984B5868FA
:102E100020F47C1042EA01031843954B5860704738
:102E200096490866704701460020914A506820F094
:102E300003000843506070478D48406800F00C0064
:102E40007047014600208A4A506820F0F00008438D
:102E50005060704701460020854A506820F4E060C9
:102E600008435060704701460020814A506820F4B2
:102E7000605040EAC1005060704729B17C4A527AE4
:102E800002437B4B5A7204E0794A527A8243784B70
:102E90005A7270477A490860704701460020744AA8
:102EA000506820F440400843506070470021754A44
:102EB00011706F4A82F82010012802D0042808D12E
:102EC00003E001216F4A117004E005216D4A117081
:102ED00000E000BF00BF70476B490860704764495D
:102EE000096A0143624A11627047674944390860C0
:102EF000704730B500210022002400235C4D6D682E
:102F000005F00C0121B1042905D0082923D105E0E1
:102F10005E4D056022E05D4D05601FE0544D6D681B
:102F200005F47012524D6D6805F48034022505EBEE
:102F300092421CB9564D554305600BE04C4D6D68EF
:102F400015F4003F03D0524D5543056002E04F4D4C
:102F50005543056002E04D4D056000BF00BF444D84
:102F60006D6805F0F00109094A4D6B5C0568DD40AC
:102F700045603F4D6D6805F4E061090A454D6B5CA5
:102F80004568DD4085603A4D6D6805F46051C90AB9
:102F9000404D6B5C4568DD40C560354D6D6805F49E
:102FA0004041890B3C4D6B5CC568B5FBF3F5056191
:102FB00030BD29B12E4A526902432D4B5A6104E0BB
:102FC0002B4A526982432A4B5A61704729B1284AD9
:102FD00092690243264B9A6104E0254A9269824332
:102FE000234B9A61704729B1214AD2690243204B91
:102FF000DA6104E01E4AD26982431D4BDA617047F0
:1030000029B11B4AD2680243194BDA6004E0184A1E
:10301000D2688243164BDA60704729B1144A1269AC
:103020000243134B1A6104E0114A12698243104BA8
:103030001A61704714494039086070470F49C864E5
:1030400070470B49C87170470948406A40F080706A
:1030500007494862704701460020054A92680A42C3
:1030600001D0012000E000207047014988727047BC
:10307000001002400000FFF8FFFFF6FE0000424291
:10308000D8004242201002408004424200127A00DE
:1030900000093D004C0000205C00002010B50446F3
:1030A000FE48844208D10121C014FFF7A9FF002186
:1030B000E014FFF7A5FFC4E0B4F1804F08D101216F
:1030C0000846FFF7AAFF00210120FFF7A6FFB8E09E
:1030D000F348844208D101210220FFF79EFF00211E
:1030E0000220FFF79AFFACE0EE48844208D10121AC
:1030F0000420FFF792FF00210420FFF78EFFA0E0DD
:10310000E948844208D101210820FFF786FF002109
:103110000820FFF782FF94E0E448844208D10121AF
:103120001020FFF77AFF00211020FFF776FF88E0DC
:10313000DF48844208D101212020FFF76EFF0021E3
:103140002020FFF76AFF7CE0DA48844208D10121A1
:103150004014FFF755FF00216014FFF751FF70E0A6
:10316000D548844209D10121C804FFF749FF002155
:103170004FF40020FFF744FF63E0D048844209D1B8
:1031800001210805FFF73CFF00214FF48010FFF7F5
:1031900037FF56E0CA48844209D101214805FFF7AC
:1031A0002FFF00214FF40010FFF72AFF49E0C54828
:1031B000844208D101214020FFF72FFF0021402049
:1031C000FFF72BFF3DE0C048844208D10121802059
:1031D000FFF723FF00218020FFF71FFF31E0BB48EE
:1031E000844208D101218015FFF717FF0021A015A7
:1031F000FFF713FF25E0B648844209D101210804F6
:10320000FFF7FEFE00214FF48030FFF7F9FE18E0D3
:10321000B048844209D101214804FFF7F1FE0021A2
:103220004FF40030FFF7ECFE0BE0AB48844208D1CE
:1032300001218804FFF7E4FE00214FF48020FFF70E
:10324000DFFE10BD00220288944B98420ED0994BAD
:1032500098420BD0B0F1804F08D0914B984205D0E6
:10326000904B984202D0904B984204D14FF68F7306
:103270001A404B881A438D4B984207D08C4B98428A
:1032800004D04FF6FF431A40CB881A4302808B8844
:1032900083850B880385814B98420BD0854B9842E0
:1032A00008D08B4B984205D08A4B984202D08A4B6B
:1032B000984201D10B7A038601238382704770B54F
:1032C000002400220023058C4FF6FE76354005844D
:1032D000028C8388048B4FF68F752C40B51E2C40D2
:1032E0000D882C43751E2A400D892A434D882A4398
:1032F0006A4DA8420BD06F4DA84208D0744DA84229
:1033000005D0744DA84202D0734DA84213D14FF698
:10331000F7752A404D892A434FF6FB752A408D8860
:103320002A434FF6FF652B404FF6FF552B408D8902
:103330002B43CD892B4383800483CD8885860284EB
:1033400070BD70B5002400220023058C4FF6EF7687
:1033500035400584028C8388048B48F6FF752C4029
:103360004FF6FF452C400D884FF6FF7606EA0525FF
:103370002C434FF6DF752A400D8906EA05152A43CE
:103380004D8806EA05152A43444DA84202D0494D0E
:10339000A8421DD14FF67F752A404D894FF6FF7622
:1033A00006EA05152A434FF6BF752A408D8806EABE
:1033B00005152A434FF6FF352B404FF2FF752B4082
:1033C0008D8906EA85052B43CD8906EA85052B43C1
:1033D00083800483CD880587028470BD70B5002486
:1033E00000220023058C4FF6FF6635400584028CD1
:1033F0008388848B4FF68F752C404FF6FC752C40DC
:103400000D882C434FF6FF552A400D894FF6FF7665
:1034100006EA05252A434D8806EA05252A431F4D5D
:10342000A84202D0234DA8421DD14FF2FF752A4079
:103430004D894FF6FF7606EA05252A434FF6FF35FC
:103440002A408D8806EA05252A434EF6FF752B4053
:103450004DF6FF752B408D8906EA05152B43CD8966
:1034600006EA05152B4383808483CD8885870284F3
:1034700070BD70B5002200230024058C4EF6FF7647
:1034800035400584038C8488828B48F6FF752A407A
:103490004FF6FF452A400D8820E00000002C014037
:1034A0000004004000080040000C004000100040F4
:1034B0000014004000340140004C01400050014025
:1034C0000054014000180040001C00400020004053
:1034D0000040014000440140004801404FF6FF76A3
:1034E00006EA05252A434DF6FF752B400D8906EAAD
:1034F00005352B434D8806EA05352B43FA4DA84286
:1035000002D0FA4DA84208D14BF6FF752C408D89A8
:103510004FF6FF7606EA85152C4384808283CD889A
:10352000A0F84050038470BD828B4FF2FF331A40E5
:103530008283828B4FF6FF7303EA01231A4382834F
:103540007047F0B50C461546002200210026078C76
:103550004EF6FF7C07EA0C070784828B018C4FF63E
:10356000FF7707EA043640F6FF473A404FF6FF7709
:1035700007EA05273A434FF6FF7707EA03373A434E
:10358000D94FB8420ED0D94FB8420BD0B0F1804FCE
:1035900008D0D74FB84205D0D64FB84202D0D64F48
:1035A000B84206D14DF6FF77394046F4805739438B
:1035B00005E047F6FF57394044F48057394382838A
:1035C0000184F0BD828B4FF6F3731A408283828BA5
:1035D0000A4382837047F0B50C461546002200214D
:1035E0000026078C4FF6FF6C07EA0C070784828BD6
:1035F000018C4FF6FF7707EA04264FF60C773A4026
:103600004FF6FF7707EA03172F433A43B64FB84206
:103610000ED0B64FB8420BD0B0F1804F08D0B44FA7
:10362000B84205D0B34FB84202D0B34FB84206D12A
:103630004FF6FF57394046F48077394305E04FF2A3
:10364000FF57394044F48077394382830184F0BDC9
:10365000028B4FF2FF331A400283028B4FF6FF7347
:1036600003EA01231A4302837047F0B50C4615465E
:10367000002200210026078C4FF6EF7C07EA0C079A
:103680000784028B018C4FF6FF7707EA041640F699
:10369000FF473A404FF6FF7707EA03373A434FF6C2
:1036A000FF7707EA05273A438F4FB8420ED08F4F76
:1036B000B8420BD0B0F1804F08D08D4FB84205D042
:1036C0008C4FB84202D08C4FB84206D14FF6DF770C
:1036D000394046F01007394305E04FF65F7739402F
:1036E00044F01007394302830184F0BD028B4FF68A
:1036F000F3731A400283028B0A4302837047F0B5CA
:103700000C46154600220021068C4FF6FE773E40FF
:103710000684028B018C4FF60C7632407E1C06EA42
:1037200003162E433243704EB0420ED06F4EB0425D
:103730000BD0B0F1804F08D06D4EB04205D06D4E29
:10374000B04202D06C4EB04206D14FF6FD76314009
:1037500044F00106314305E04FF6F576314044F080
:103760000106314302830184F0BD70B505460C4665
:103770005D4885420ED05D4885420BD0B5F1804F43
:1037800008D05B48854205D05A48854202D05A4845
:10379000854200D100E000BF208850B92389A2886B
:1037A00061882846FFF7ABFFE1882846FFF79EFFB8
:1037B00025E0208804280AD12389A2886188284628
:1037C000FFF753FFE1882846FFF742FF17E0208804
:1037D00008280AD12389A28861882846FFF7FBFEC2
:1037E000E1882846FFF7EEFE09E02389A288618878
:1037F0002846FFF7A6FEE1882846FFF795FE70BD34
:103800002DE9F04105460C4600260127608808B9DD
:10381000022600E00026A088012801D1022700E04E
:1038200001272088A0B92389A28861882846FFF74C
:1038300066FFE1882846FFF759FF23893A4631465B
:103840002846FFF712FFE1882846FFF701FF13E043
:103850002389A28861882846FFF707FFE188284668
:10386000FFF7F6FE23893A4631462846FFF747FF21
:10387000E1882846FFF73AFFBDE8F0810A884B88C7
:103880001A438B881A43CB881A430B891A434B89F6
:103890001A438B891A43A0F8442070474FF6FF71F2
:1038A000818000210180C180418001727047002128
:1038B000018041808180C180018141818181C181FC
:1038C0007047002101804180012181800021C18059
:1038D000018170470021018041808180C180018188
:1038E0004181818170470000002C0140003401407B
:1038F0000004004000080040000C004021B1028894
:1039000042F00102028004E002884FF6FE731A4082
:103910000280704731B1B0F8442042F40042A0F870
:10392000442005E0B0F84420C2F30E02A0F8442081
:1039300070471AB183890B43838102E083898B43EB
:10394000838170478182704741EA0203A0F84830C2
:1039500070471AB183890B43838102E083898B43CB
:103960008381704701894FF6F872114001817047D9
:103970000A46002101894FF68F73194011430181D6
:10398000704730B504460D4629462046FFF7F0FF44
:10399000208940F00700208130BD2DE9F041044628
:1039A0000D4616461F46602D06D13B460122314684
:1039B0002046FFF75AFE05E03B46012231462046ED
:1039C000FFF79DFE29462046FFF7D2FF208940F0F1
:1039D00007002081BDE8F08130B50C460021018947
:1039E000C9B24FF6FF7505EA032515432543294360
:1039F000018130BD2DE9F04105460E461746984637
:103A0000002443463A4631462846FFF7E5FF2C8915
:103A10004FF6F870044044F007044FF68F700440EE
:103A200044F070042C81BDE8F081F0B504460D46E9
:103A300016461F463B46324629462046FFF7CCFF36
:103A4000208940F480402081F0BD0185828270474A
:103A50000A46002101884FF68F73194011430180F7
:103A60007047F0B50C4615461E4600210022002383
:103A70000189028B038C4FF6F877394021434FF6CA
:103A8000FC473A4040F201173A434FF6DD773B409E
:103A90004FF6FF7707EA06172F433B430181028366
:103AA0000384F0BD0A460021018B4FF68F73194045
:103AB0001143018370470A460021018B48F6FF73CA
:103AC00019404FF6FF7303EA02231943018370473D
:103AD0000A460021818B4FF68F7319401143818371
:103AE00070470A460021818B48F6FF7319404FF654
:103AF000FF7303EA022319438183704721B10288CF
:103B000042F08002028004E002884FF67F731A4080
:103B10000280704721B1828842F00402828004E072
:103B200082884FF6FB731A408280704721B18288E9
:103B300042F00802828004E082884FF6F7731A4050
:103B40008280704721B1828842F00102828004E0C5
:103B500082884FF6FE731A40828070470A46002121
:103B6000018B4FF6F77319401143018370470A46E2
:103B70000021018B4FF2FF7319404FF6FF7303EAE8
:103B800002231943018370470A460021818B4FF6B7
:103B9000F77319401143818370470A460021818BD6
:103BA0004FF2FF7319404FF6FF7303EA02231943E4
:103BB000818370470A460021018B4FF6FB73194041
:103BC0001143018370470A460021018B4FF6FF33F2
:103BD00019404FF6FF7303EA02231943018370472C
:103BE0000A460021818B4FF6FB73194011438183F4
:103BF00070470A460021818B4FF6FF3319404FF67C
:103C0000FF7303EA02231943818370470A460021A8
:103C1000018B4FF67F7319401143018370470A46A9
:103C20000021018BC1F30E014FF6FF7303EA02235B
:103C30001943018370470A460021818B4FF67F7339
:103C400019401143818370470A460021818BC1F3DB
:103C50000E014FF6FF7303EA022319438183704775
:103C60000A460021018C4FF6FD731940114301846F
:103C700070470A460021018C4FF6F7731940114333
:103C8000018470470A460021018C4FF6DF7319400A
:103C90004FF6FF7303EA02131943018470470A4683
:103CA0000021018C4FF67F7319404FF6FF7303EA32
:103CB00002131943018470470A460021018C4FF614
:103CC000FF5319404FF6FF7303EA0223194301849F
:103CD00070470A460021018C4FF2FF7319404FF6DE
:103CE000FF7303EA02231943018470470A46002147
:103CF000018C4DF6FF7319404FF6FF7303EA023350
:103D000019430184704730B5002301248C40A3B2CD
:103D1000048C9C430484048C02FA01F5ADB22C435C
:103D2000048430BD30B5002304248C40A3B2048C3D
:103D30009C430484048C02FA01F5ADB22C43048444
:103D400030BD70B503460020002418461830012508
:103D50008D40ACB21D8CA5431D8409B1082909D141
:103D600000EB6100056825F07005056005681543E6
:103D700005600EE00D1FC5F34E052844056825F4C7
:103D8000E045056005684FF6FF7606EA02263543F2
:103D9000056070BD21B1028842F00202028004E099
:103DA00002884FF6FD731A400280704721B10288E5
:103DB00042F00402028004E002884FF6FB731A40CE
:103DC0000280704721B1828842F08002828004E044
:103DD00082884FF67F731A408280704702884FF6C0
:103DE000F7731A40028002880A4302807047828873
:103DF0004FF68F731A40828082880A438280704710
:103E000002894FF6F8731A40028102890A4302813F
:103E1000704702894FF67F731A40028102890A4374
:103E20000281704781847047818570478186704721
:103E30000187704781877047A0F84010704702885B
:103E40004FF6FF431A40028002880A4302807047FF
:103E50000146888E70470146088F70470146888F5B
:103E600070470146B1F8400070470146888C7047A2
:103E70000146088D704702460020138A0B4201D08C
:103E8000012000E000207047CA430282704730B52D
:103E90000246002000230024158A05EA01039589C3
:103EA00005EA010413B10CB1012000E0002030BD8F
:103EB000CA4302827047000010B50446FB488442A2
:103EC00009D101218803FFF79BF800214FF48040BE
:103ED000FFF796F832E0F648844209D10121480400
:103EE000FFF79BF800214FF40030FFF796F825E02C
:103EF000F048844209D101218804FFF78EF800219F
:103F00004FF48020FFF789F818E0EB48844209D18C
:103F10000121C804FFF781F800214FF40020FFF7CA
:103F20007CF80BE0E548844208D101210805FFF741
:103F300074F800214FF48010FFF76FF810BD2DE9E1
:103F4000F04786B005460E460024A24600BFA146B3
:103F50000027B08900B100BF2F462C8A4CF6FF70B5
:103F60000440F08804432C82AC894EF6F3100440E0
:103F7000B08831890843718908430443AC81AC8A15
:103F80004FF6FF400440B0890443AC8201A8FEF71D
:103F9000B0FFC648874202D1DDF810A001E0DDF88D
:103FA0000CA0A88910F4004F08D00AEBCA0000EB5F
:103FB0000A1031684900B0FBF1F807E00AEBCA00CB
:103FC00000EB0A1031688900B0FBF1F86420B8FBFF
:103FD000F0F004012009642101FB1089A88910F484
:103FE000004F08D0322000EBC900B0FBF1F000F028
:103FF0000700044308E0322000EB09106421B0FB05
:10400000F1F000F00F0004432C8106B0BDE8F0870A
:104010004FF41651016000218180C18001810C2183
:10402000418100218181704710B502460020108A2D
:104030004FF2FF0318400B884C8823438C8823439E
:10404000CC8823431843108210BD00210180418099
:104050008180C180704721B1828942F400528281FF
:1040600004E082894DF6FF731A4082817047F0B5F3
:1040700003460024002600250020A1F510676A3FB2
:1040800000D100BF1846C1F3421401F01F060127FA
:1040900007FA06F5012C01D10C3004E0022C01D105
:1040A000103000E014301AB107682F43076002E0B7
:1040B0000768AF430760F0BD1AB1838A0B43838260
:1040C00002E0838A8B4383827047028A4FF6F07343
:1040D0001A400282028A0A430282704782894FF2A2
:1040E000FF731A40828182890A438281704721B11D
:1040F000828942F00202828104E082894FF6FD73D8
:104100001A4082817047028A4FF6DF731A4002829A
:10411000028A0A430282704721B1028A42F4804235
:10412000028204E0028A4BF6FF731A400282704753
:10413000C1F308028280704701468888C0F30800F6
:104140007047818941F0010181817047028BD2B2B1
:104150000283028B42EA012202837047028B02F43F
:104160007F420283028B0A430283704721B1828A15
:1041700042F02002828204E0828A4FF6DF731A4006
:104180008282704721B1828A42F01002828204E06A
:10419000828A4FF6EF731A408282704721B1828A79
:1041A00042F00802828204E0828A4FF6F7731A40D6
:1041B0008282704721B1828942F40042828103E009
:1041C0008289C2F30E028281704721B1828A42F451
:1041D0000062828204E0828A4FF2FF731A40828278
:1041E0007047828A4FF6FB731A408282828A0A43A2
:1041F0008282704721B1828A42F00202828204E008
:10420000828A4FF6FD731A40828270470246002070
:10421000B1F5007F00D100BF13880B4201D001200F
:1042200000E00020704701F40072B2F5007F00D179
:1042300000BFCA430280704770B5024600240023C5
:1042400000250020A1F510666A3E00D100BFC1F331
:10425000421501F01F03012606FA03F3012D02D1D6
:104260009689334006E0022D02D1168A334001E0E0
:10427000968A33400C12012606FA04F4168834405C
:1042800013B10CB1012000E0002070BD10B5002278
:104290000023A1F510646A3C00D100BF0A1201247A
:1042A0009440A3B2DC43048010BD000000380140FC
:1042B0000044004000480040004C004000500040D6
:1042C00040EA01039B0703D009E008C9121F08C098
:1042D000042AFAD203E011F8013B00F8013B521E18
:1042E000F9D2704710B5002200E0521C835C8C5C50
:1042F000A34201D1002BF8D1D8B2E1B2401A10BDCF
:104300002DE9F05F0546002092469B46884606460A
:10431000814640241BE0284641464746224600F09D
:1043200042F853465A46C01A914110D311461846D6
:10433000224600F029F82D1A67EB01084F46224665
:104340000120002100F020F817EB00094E41201E4B
:10435000A4F10104DFDC484631462A464346BDE865
:10436000F09F0000064C074D06E0E06840F00103B6
:1043700094E8070098471034AC42F6D3FBF7DCFE14
:10438000F848000818490008202A04DB203A00FAFF
:1043900002F1002070479140C2F1200320FA03F39C
:1043A000194390407047202A04DB203A21FA02F09A
:1043B0000021704721FA02F3D040C2F1200291405F
:1043C00008431946704700000FB4054B10B503A908
:1043D000044A029800F018F810BC5DF814FB0000C5
:1043E000330800086000002002E008C8121F08C15E
:1043F000002AFAD170477047002001E001C1121F66
:10440000002AFBD1704700002DE9FF4F8DB09B467D
:104410000F460446002638E1252801D00F9959E0BF
:104420000025641C9D49A84601222378203B02FAFE
:1044300003F0084202D00543641CF6E720782E28DA
:1044400017D114F8010F45F004052A280ED06FF09B
:104450002F022078A0F1300109290AD808EB880141
:1044600002EB410100EB0108641CF2E757F8048BF2
:10447000641C20786C280DD004DC4C2812D06A28EB
:1044800011D104E074280DD07A280CD10AE045F44B
:10449000001507E0617845F48015814202D1641C63
:1044A00005F58015641C2278692A46D008DC002AAC
:1044B00070D0582A69D0632A11D0642A08D13CE010
:1044C000702A69D0732A14D0752A5CD0782A5CD0FF
:1044D0000F9910465A46904706F10106D4E017F8A6
:1044E000040B8DF8000000208DF80100E946012042
:1044F00003E057F8049B4FF0FF3069074FF00005C9
:1045000001D40AE06D1C45450DDA8542FADB19F845
:1045100005100029F6D106E06D1C8542FCDB19F878
:1045200005100029F8D12E4404E019F8010B5A4671
:104530000F9990476D1EF8D2A6E00A200021CDE920
:104540000801C5F3025002280BD001CFC117002982
:104550000EDA4FF0000CD0EB0C006CEB01012D23B8
:1045600009E007F1070727F00707F7E80201EEE780
:104570002B0504D52B238DF82830012330E0EB07E1
:104580002ED02023F7E70A2000E010200021CDE9FB
:10459000080109E07DE0FFE71020002145F0040557
:1045A000CDE908014FF00808C5F3025002281BD0DE
:1045B00001CF00214FF0000A2B0712D5702A19D025
:1045C000DDE908C38CF0100C5CEA030C09D150EA59
:1045D000010306D030238DF828308DF829200223DE
:1045E0009A46582A10D00AE0FF1D27F00707F7E87F
:1045F0000201DFE740228DF828204FF0010A28A2AF
:104600000DF120090B9209E02AA2F9E7DDE9082360
:10461000FFF776FE0B9B9B5C09F8013D50EA010217
:10462000F4D1ADEB090000F120000890680701D437
:104630004FF001080899884502DDA8EB010000E071
:1046400000208046002506E00AA85A46405D0F99E2
:104650009047761C6D1C5545F6DB04E030205A4629
:104660000F999047761CB8F10001A8F10108F5DC1C
:1046700005E019F8010B5A460F999047761C0899E6
:10468000481E08900029F4DC641C207800287FF480
:10469000C3AE11B03046BDE8F08F0000092801001C
:1046A00030313233343536373839616263646566A8
:1046B000000000003031323334353637383941426A
:1046C000434445460000000010B5002821D0114B9E
:1046D000001F0022196803E0814203D80A46496896
:1046E0000029F9D152B11368841A9C4204D10068A0
:1046F00018441060104602E0506000E0186039B1C4
:1047000002680B1A934203D10B681A44026049688D
:10471000416010BD64000020F0B50B30154D20F055
:1047200007010024144A0FE003688B420BD38B422D
:1047300005D95E1A43184768C3E9006700E043687B
:10474000136002C004E0021D10680028ECD120466E
:10475000002802D1286808B10020F0BD064A0748A9
:104760001060074A121A22F00702C0E90024012053
:104770002860D7E768000020640000208401002042
:1047800080110020756172745F726561645F707280
:104790006F630045585449395F355F49525148614C
:1047A0006E646C6572006B65795F70726F636573C0
:1047B00073007072696E745F696E697400707274F0
:1047C0006100756172745F77726974655F646165B9
:1047D0006D6F6E00756172745F646D615F77726991
:1047E0007465006669666F5F696E69740066696604
:1047F0006F5F696E006669666F5F6F7574006669EA
:10480000666F5F6765745F6F75740069735F656D70
:10481000707479005F69735F66756C6C00000000EE
:10482000000200000001000000036B65795F696E03
:104830006974006B65795F6972715F68616E646C41
:104840006572006B65795F73746174655F6D616338
:1048500068696E65004E4D495F48616E646C6572B3
:1048600000486172644661756C745F48616E646C87
:104870006572004D656D4D616E6167655F48616E83
:10488000646C6572004275734661756C745F486153
:104890006E646C65720055736167654661756C7412
:1048A0005F48616E646C6572005356435F48616E89
:1048B000646C65720044656275674D6F6E5F486138
:1048C0006E646C65720050656E6453565F48616E2D
:1048D000646C6572005379735469636B5F48616EF1
:1048E000646C6572004E4F4E45004C4F4E4700447D
:1048F0004F574E0055500000184900080000002096
:104900006C000000E8430008844900086C000020A7
:1049100014150000F843000800000000000000002B
:104920000000000000000000000000000000000087
:104930000000000000000000000000000000000077
:10494000E5480008F4480008EF480008EA48000875
:1049500000A24A040000000000000000010203045D
:104960000607080900000000010203040102030415
:104970000607080902040608000000000000000005
:044980000000000033
:0400000508000131BD
:00000001FF
