:020000040800F2
:1000000018150020691C000823190008331900087E
:10001000471900085B1900086F190008000000006C
:10002000000000000000000000000000831900082C
:1000300085190008000000008719000889190008C8
:10004000831C0008831C0008831C0008831C000814
:10005000831C0008831C0008831C0008831C000804
:10006000831C0008831C0008831C0008831C0008F4
:10007000831C0008831C00086F020008831C000812
:10008000831C0008831C0008831C0008831C0008D4
:10009000831C0008831C0008831C0008831C0008C4
:1000A000831C0008831C0008831C0008831C0008B4
:1000B000831C0008831C0008831C0008831C0008A4
:1000C000831C0008831C0008831C0008831C000894
:1000D000831C000879020008831C0008831C0008A8
:1000E000831C0008831C0008831C0008831C000874
:1000F000831C0008831C0008831C0008831C000864
:10010000831C0008831C0008831C0008831C000853
:10011000831C0008831C0008831C0008831C000843
:10012000831C0008831C0008831C0008831C000833
:10013000DFF80CD003F0F2FE00480047C5010008CC
:1001400018150020224800BF0100A0F10100FBD1DA
:1001500070477CB506460C46154600206055352391
:100160001C4A1DA11EA0CDE9005403F009FF7CBD6F
:100170000EB500F0F3FA00F0FCFA00F0BCF800F065
:1001800083FB4FF400421B491B4800F06AFA14201D
:100190000A21CDE9000103464FF4E13217490290EC
:1001A000174800F05CFF1648AFF25901D0F89820CC
:1001B00090472723134A08A113A003F0E1FEFFF79D
:1001C000C1FF0EBDFFF7D4FF00F04DF800BFFEE702
:1001D00080969800464300086D61696E000000003B
:1001E00025733A202573282564293A202564202583
:1001F000730D0A0000100140680000200038014023
:100200007C0000203C43000825733A2025732825F4
:1002100064293A20686572650D0A00000020704765
:1002200010B51848D0F8881088471648D0F88C10B8
:100230008847002010BD0020704710B51248008884
:1002400068B91248016988470E48062210A1D0F803
:100250009030984700200C490880012010BD0020F4
:10026000FCE70020704710B500F06FF810BD10B526
:10027000044800F049FC10BD10B5024800F0EFFF43
:1002800010BD00007C00002000000020680000205D
:10029000313233343536000000B587B002A802F0A1
:1002A00012FC03981523A84AA8A10090A8A003F067
:1002B00067FE04981623A44AA4A10090ABA003F003
:1002C0005FFE05981723A04AA0A10090AEA003F0FE
:1002D00057FE029818239C4A9CA10090B1A003F0FD
:1002E0004FFE06981923984A98A10090B4A003F0F5
:1002F00047FE07B000BD0EB5B84802F0B9FCB748DC
:10030000001D008840F01000B449091D088001213B
:10031000042002F052FC4FF6FF70ADF8040048F6DE
:100320009F40ADF800000020ADF80600ADF80200D7
:100330006946AA4802F070FD0121A84803F0C8F9F7
:100340000121A64803F0C4F80EBD0020A3492431C2
:100350000880A2481030007820F001009F49103139
:10036000087053E09D48243000889D4909888842E0
:1003700000D14BE099482430008899490880FFF764
:100380004DFF96482430008896490988401A80B26B
:100390000A283ADD934800880A3092490880FFF71E
:1003A0003FFF8E48243000888F490988401A80B268
:1003B00064282ADD8C48008864308B490880FFF768
:1003C0003AFF86482430008888490988401A80B25C
:1003D000B0F57A7F19DD8548008800F57A70834989
:1003E0000880FFF72AFF7D4824300088804909886B
:1003F000401A80B24EF66021884206DD7C480068D3
:1004000008447B490860FFF72CFF00BFAAE708B546
:100410007848008865283BD003DC38B163287DD15B
:1004200017E0672852D06928F9D16DE06B48243075
:1004300000886223704A45A1009070A003F0A0FDDF
:100440006648243000887249088063206949088022
:1004500000BF6248243000886D490988401A80B284
:10046000B0F57A7F01DA002008BD5C4824300088AE
:100470006423614A35A1009060A003F081FD5748D4
:10048000243000886349088065205A49088000BFED
:100490005248243000885F490988401A80B2FA28FF
:1004A00001DA0020E0E74D48243000886623524AF4
:1004B00026A1009051A003F063FD48482430008835
:1004C0005549088067204B49088000BF43482430C5
:1004D000008851490988401A80B21E2801DA00209C
:1004E000C2E73E48243000886823434A17A10090A1
:1004F00042A003F045FD3948243000884749088070
:1005000069203C49088000BF3448243000884349B2
:100510000988401A80B2642803DA00E010E0002065
:10052000A2E72E48243000886A23334A07A10090AE
:1005300032A003F025FD00202E490880012093E71A
:1005400000BF002090E7000055430008636C6B007B
:1005500025733A202573282564293A2048434C4BBB
:1005600020203A25640D0A0D0A00000025733A2068
:100570002573282564293A2050434C4B31203A25D5
:10058000640D0A0D0A00000025733A202573282502
:1005900064293A2050434C4B32203A25640D0A0D11
:1005A0000A00000025733A202573282564293A2083
:1005B000535953434C4B3A25640D0A0D0A00000071
:1005C00025733A202573282564293A204144434362
:1005D0004C4B3A25640D0A0D0A000000000800404B
:1005E0000400002006000020080000200A0000206F
:1005F0000C000020100000205F43000825733A2003
:100600002573282564293A2025640D0A0D0A000067
:100610001200002014000020160000201800002006
:1006200010B504464148006830B12046A1688847AB
:1006300000203E49086005E02046E1688847012027
:100640003A49086010BD10B50446A188206802F040
:100650009EF810BD10B50446A188206802F095F8F8
:1006600010BDF8B505460C4616462C60AE803048E5
:10067000A8603048E860304828613048844204D19E
:100680000121042002F08CFA2EE02D48844204D18E
:100690000121082002F084FA26E02A48844204D18D
:1006A0000121102002F07CFA1EE02748844204D188
:1006B0000121202002F074FA16E02448844204D17B
:1006C0000121402002F06CFA0EE02148844204D15E
:1006D0000121802002F064FA06E01E48844203D122
:1006E0000121801502F05CFAA888ADF80000032013
:1006F0008DF8020010208DF803006946286801F08B
:1007000099FFF8BD144800BF0100A0F10100FBD122
:10071000704710B504462046A1688847FFF7F2FFEE
:100720002046E1688847FFF7EDFF10BD1C00002060
:100730005506000847060008210600080008014089
:10074000000C01400010014000140140001801405D
:10075000001C0140002001408096980010B5002147
:100760004FF0006001F0CAFA4FF4C06001F08EFA59
:1007700010BD10B502F0AAF84FF4803002F0C6F8B0
:1007800002F003F90446012C28D1102001F028FCC6
:10079000022001F011FC002002F03DF9002002F0DF
:1007A0004CF94FF4A06002F03FF9E00302F05FF96A
:1007B0004FF4E011200402F011F9012002F01AF9BF
:1007C00000BF392002F0C5F80028FAD0022002F05C
:1007D00014F900BF02F01AF90828FBD110BD01205E
:1007E00080F3138800BF00BF0648006800F4E06093
:1007F00005490843001D03490860BFF3408F00BF4F
:1008000000BFFEE70CED00E00000FA051FB5012176
:10081000480402F0D2F94FF4E13000900C20ADF81A
:100820000A000020ADF80C00ADF80800ADF8040097
:10083000ADF806006946364803F06BF940213448AC
:1008400003F0DBFA0121324803F0EFF91FBD08B5D0
:100850000121042002F0A4F90420ADF800001820C2
:100860008DF8030003208DF802006946294801F045
:10087000E1FE0820ADF8000004208DF80300694671
:10088000244801F0D7FE08BD10B5FFF7E0FFFFF7E1
:10089000BDFF1A23204A21A122A003F071FB10BD45
:1008A0002DE9F04104460D4627463CB94423254A2C
:1008B0001AA125A003F064FBBDE8F081B5F5803FE7
:1008C00006D349231F4A15A126A003F059FBF3E7DD
:1008D000002605E017F8011B2BA003F051FB761C46
:1008E000AE42F7D329A003F04BFB00BFE4E770B59D
:1008F00004460D4600BF8021054803F071FA002828
:10090000F9D0E1B2024803F0FDF9204670BD0000C5
:100910000044004000080140684300087072696E9E
:100920007400000025733A202573282564293A2095
:1009300057656C636F6D6520746F2053544D33326F
:10094000210D0A007343000825733A2025732825DA
:1009500064293A206172726179206973206E756C26
:100960006C0D0A0025733A202573282564293A2046
:10097000617272617920697320746F6F6F206C6F80
:100980006E670D0A00000000257820000D0A0000A7
:1009900070B504460D4616464CB94FF4C273FA4A78
:1009A000FAA1FCA003F0ECFA6FF0150070BD342042
:1009B000005D48B140F28913F34AF4A1FBA003F0B3
:1009C000DFFA6FF00A00F1E74DB94FF4C773EE4A52
:1009D000EEA1FDA003F0D4FA6FF01500E6E74EB9E2
:1009E00040F29313E84AE9A1FEA003F0C9FA6FF0C0
:1009F0001500DBE7012134200155E069C560E0699D
:100A00004660E06901F07DFA0020CFE710B50446AA
:100A100094F84400B0B1002084F84400F74AF84943
:100A200004F14800236E9847F4480278F4480168BE
:100A30002046FFF7ADFF28B11623F24AD3A1F2A05A
:100A400003F09EFA10BDFEB50446002694F845005A
:100A500000282FD0002084F8450024E0802003598E
:100A6000E64AE74904F168009847D4F8940038B1A1
:100A7000E2480278E248D4F894300168204698476A
:100A8000701CC6B2DE4805680020DC49097868544D
:100A9000DA4800782D23E44ABCA1CDE90165009035
:100AA000E2A003F06DFA8420015904F16800884740
:100AB0000028D3D0FEBDF8B504460E46154604F115
:100AC0004800616E884730B1EAB231462046FFF7F0
:100AD0005FFF00B909E0EAB2314604F14800A36DB6
:100AE0009847012084F8440000BF3E23D84AA7A1BC
:100AF000D8A0009503F044FA29463046FFF7D0FE0F
:100B0000F8BDC0F89410704710B50446E06A01F0D3
:100B100026FA206B01F041FA0021E06901F0F1F9B9
:100B200000213420015510BD0268918802681188A7
:100B30004A1C91B2704710B58CB00446CD4920686C
:100B4000884210D10121084602F01DF8CA49E1612E
:100B5000C949143121620E2020764FF40051E16220
:100B6000491021634AE0C5492068884211D101211A
:100B7000084602F008F8C0493C31E161BE4928311D
:100B80002162112020764FF00071E162491021634B
:100B900034E0BB492068884210D10121084601F0A9
:100BA000F2FFB5492839E161B349143921620C20BB
:100BB00020762021E162102121631FE0B1492068E5
:100BC000884210D10121022001F0DDFFAE49E16130
:100BD000AD49283921623B2020764FF40031E16293
:100BE000491021630AE0A9492068884206D14FF4E0
:100BF0009873A74A65A1A7A003F0C2F9E06901F0C4
:100C0000B3F82068001D0190606A029010200390E4
:100C10000020049005908020069000200790089006
:100C200009904FF400500A9000200B9001A9E06950
:100C300001F03CF901220221E06901F06EF9002186
:100C4000E06901F05EF9206A01F08EF82068001D6D
:100C50000190606A029000200390A06A0490002036
:100C600005908020069000200790089009904FF48E
:100C700040500A9000200B9001A9206A01F016F95B
:100C800000220221206A01F048F900220821206A8E
:100C900001F043F901228021206802F0F7FF0122D0
:100CA0004021206802F0F2FF0121206A01F029F9B9
:100CB0002046FFF739FF012240F22441206802F06C
:100CC000C0FF207E8DF8000000208DF801008DF817
:100CD000020001208DF80300684600F0DCFF0021CF
:100CE000342001554FF4B473694A28A176A003F06B
:100CF00047F90CB010BD10B586B004465D492068B8
:100D0000884206D10121880301F04AFF2520207581
:100D10002AE05A492068884206D10121480401F09E
:100D20004CFF262020751FE055492068884206D1D7
:100D30000121880401F041FF2720207514E051496A
:100D40002068884206D10121C80401F036FF342012
:100D5000207509E04D492068884205D10121080528
:100D600001F02BFF35202075606802900C20ADF853
:100D700012000020ADF81400ADF81000ADF80C0022
:100D8000ADF80E0002A9A9E0E8430008756172748D
:100D90000000000025733A202573282564293A2095
:100DA0006E756C6C20756172740D0A0025733A20A3
:100DB0002573282564293A20646D612069732062B7
:100DC0007573790D0A00000025733A2025732825D4
:100DD00064293A206E756C6C20616464726573736B
:100DE0000D0A000025733A202573282564293A202E
:100DF0006E756C6C206C656E0D0A0000240000207E
:100E0000200000207843000825733A202573282508
:100E100064293A20646D6120777269746520657277
:100E2000726F720D0A0000008A43000825733A2091
:100E30002573282564293A206C656E3A2025642C98
:100E400020636E743A2025642025730D0A0000008B
:100E50009B43000825733A202573282564293A20EE
:100E60006C656E3A20256420646174613A200D0A35
:100E700000000000003801404400024000440040EF
:100E800000480040004C0040580402400050004020
:100E9000DA43000825733A202573282564293A206F
:100EA000756172745F646D615F696E69743A205533
:100EB000415254352063616E277420757365204458
:100EC0004D41210D0A00000025733A202573282585
:100ED00064293A204F4B0D0A00000000206802F000
:100EE00018FE4021206802F088FF002240F22551C0
:100EF000206802F0A6FE002240F22661206802F07F
:100F0000A0FE002240F22441206802F09AFE207DDB
:100F10008DF8040000208DF805008DF806000120F2
:100F20008DF8070001A800F0B6FE0121206802F04C
:100F30007CFEEC23E24AAFF2AC11AFF2740003F096
:100F40001FF806B010BD38B50446DE492068884257
:100F50000CD10121042001F023FEDB48A0600146F2
:100F6000E160411521820115618246E0D749206880
:100F700088420CD10121042001F012FED248A06069
:100F80000146E160042121820821618235E0D049D7
:100F9000206888420CD10121082001F001FECD48D3
:100FA000A0600146E16001152182C114618224E044
:100FB000C949206888420CD10121102001F0F0FDC0
:100FC000C648A0600146E16001152182C11461821A
:100FD00013E0C349206888420FD10121102001F09D
:100FE000DFFD0121202001F0DBFDBC48A060BD49F0
:100FF000E1608114218204216182208AADF8000021
:1010000018208DF8030003208DF802006946A068BF
:1010100001F010FB608AADF8000004208DF8030099
:101020006946E06801F006FBAF23AF4AAFF2A421A6
:10103000AFF26C1002F0A4FF38BD10B504460020DA
:1010400084F838002046FFF77EFF2046FFF753FE66
:101050002046FFF770FD012084F8380010BD2DE90F
:10106000F84F04460E4617469846DDE90B9A0A9D4E
:1010700067602660AFF26B60C4F88800AFF2396039
:10108000C4F88C00AFF2D150C4F89000AFF28D508C
:10109000C4F89800284603F01BF96062A56201219C
:1010A00034200155606A38B96323904AAFF2243185
:1010B0008FA0009502F064FFEAB208F0FF0104F18E
:1010C000480000F0A5FA0AF0FF0209F0FF0104F160
:1010D000680000F09DFA2046FFF7AFFFBDE8F88FEB
:1010E00038B504460021E06900F00BFF0021206ABA
:1010F00000F007FF00220221E06900F00EFF00224D
:101100000221206A00F009FF00220821206A00F075
:1011100004FF00228021206802F0B8FD0022402157
:10112000206802F0B3FD207E8DF8000000208DF8CD
:1011300001008DF802008DF80300684600F0ABFD59
:1011400038BD38B50446002240F22551206802F02F
:1011500078FD002240F22661206802F072FD002234
:1011600040F22441206802F06CFD40F26551206895
:1011700002F043FE207D8DF8000000208DF8010074
:101180008DF802008DF80300684600F084FD002110
:10119000206802F04AFD4B492068884205D10021B1
:1011A0004FF4804001F0FCFC26E04849206888426A
:1011B00005D100214FF4003001F0FFFC1CE0444950
:1011C0002068884205D100214FF4802001F0F5FC11
:1011D00012E041492068884205D100214FF40020E7
:1011E00001F0EBFC08E03E492068884204D1002170
:1011F0004FF4801001F0E1FC38BD38B50446208A78
:10120000ADF8000004208DF803006946A06801F0E5
:1012100011FA608AADF8000004208DF803006946D9
:10122000E06801F007FA38BD10B5044694F83800BC
:1012300038B978233E4AAFF2AC413EA002F0A0FE9E
:1012400010BD2046FFF7D9FF2046FFF77AFF204662
:10125000FFF746FF002084F8380000BFF0E710B524
:10126000044640F22441206802F0D0FD002825D039
:101270000021206A00F045FE206A00F059FEA16AB4
:10128000081A2064A16A206A41600121206A00F0E6
:1012900038FE2046FFF748FC94F8402004F168002F
:1012A000A36F616A9847012084F8450040F2AB13B0
:1012B000304AAFF2285130A002F062FE10BD0000AB
:1012C000CA430008003801400008014000440040C3
:1012D00000480040000C0140004C0040001001405C
:1012E0000050004000140140BB430008A643000822
:1012F00025733A202573282564293A207561727474
:101300005F696E69743A206E6F206D656D20666F3F
:101310007220756172742E646D612E72785F6275D1
:10132000666665723A2025640D0A0D0A0000000009
:10133000B043000825733A202573282564293A20F4
:10134000756172745F6770696F5F756E696E6974DD
:101350003A207561727420686173206E6F74206228
:1013600065656E20696E697469616C697A6564216E
:101370000D0A0000F743000825733A20257328253D
:1013800064293A2049444C45204952510D0A000035
:1013900010B504462CB9D023D54AD6A1D7A002F067
:1013A000EFFDA07808B9012010BD0020FCE7FEB5D4
:1013B00004460E4615460027D7480068401CD6490B
:1013C000086044B9AC23D54ACAA1CCA002F0D8FD2C
:1013D0006FF01500FEBD46B9B123D04AC5A1D0A01B
:1013E00002F0CEFD6FF01500F4E745B9B623CB4A05
:1013F000C0A1D2A002F0C4FD6FF01500EAE72046BC
:10140000FFF7C6FF40B1BB23C44ABAA1D2A002F085
:10141000B7FD6FF00A00DDE76278A168207B02FB70
:10142000001030606078411C61706168095C29704F
:101430006078E178884201D100206070A078401E79
:10144000A070B54802682878A178C723CDE90102C9
:101450000091B24AA7A1C7A002F092FD2978306896
:10146000FFF71EFA3846B5E7FEB504460E461546A8
:101470000027CD480068401CCB49086044B981234F
:10148000CA4A9CA19DA002F07BFD6FF01500FEBD35
:1014900046B98623C54A97A1C5A002F071FD6FF039
:1014A0001500F4E745B98B23C04A92A1A3A002F02E
:1014B00067FD6FF01500EAE72046FFF769FF40B1CE
:1014C0009023BA4A8BA1A4A002F05AFD6FF00A0043
:1014D000DDE761786068405C287094F801C0A3681B
:1014E000207B0CFB00312A78304602F0D3FC607878
:1014F000401C60706078E178884201D10020607003
:10150000A078401EA070A8480168A0789C23A74A34
:10151000CDE90151009077A196A002F031FD297824
:101520003046FFF7BDF93846B1E710B504462CB98F
:10153000D823A64A6FA171A002F022FDA078E1781D
:10154000884201D1012010BD0020FCE7FEB5044611
:101550000E46154600279E480068401C9C490860BE
:1015600044B956239B4A63A164A002F009FD6FF0C1
:101570001500FEBD46B95B23964A5EA18CA002F021
:10158000FFFC6FF01500F4E7012D01DBFF2D09DDF5
:101590006023904A57A190A0009502F0F1FC6FF0F3
:1015A0001500E6E72046FFF7C0FF40B16523894AF2
:1015B00050A197A002F0E4FC6FF00A00D9E723786D
:1015C000A268217B03FB01202A46314602F062FC1F
:1015D0002078411C217061680D542078E1788842A0
:1015E00001D100202070A078401CA07078480168CC
:1015F000A0787223774ACDE9015100903DA18BA0DC
:1016000002F0BEFC29463046FFF74AF93846B0E7FB
:1016100077B583B00446154600264CB922238E4A7E
:1016200034A136A002F0ACFC6FF0150006B070BD1E
:101630009DF81000012803DB9DF81000FF2808DD4D
:101640002723854A2BA185A002F09AFC6FF0150094
:10165000ECE7012D01DBFF2D08DD2C237E4A25A1BF
:1016600089A002F08DFC6FF01500DFE700202070EC
:101670006070A0709DF81000E0708E4820618E4868
:1016800060618E48A061AFF2F720E06125739DF89C
:10169000101001FB05F002F01BFEA060A06840B92D
:1016A0003E236D4A13A186A002F06AFC6FF00B0086
:1016B000BCE79DF8100002F00BFE6060606858B94E
:1016C000A06802F0DDFD4523634A0AA17CA002F078
:1016D00057FC6FF00B00A9E79DF8100049235E4A04
:1016E00004A1CDE900057EA002F04AFC30469DE74A
:1016F000354400086669666F0000000025733A20D3
:101700002573282564293A206669666F206973204D
:101710006E756C6C0D0A0000300000202844000833
:1017200025733A202573282564293A2061646420B2
:101730006973206E756C6C0D0A00000025733A20E9
:101740002573282564293A206C656E206973206E04
:10175000756C6C0D0A00000025733A20257328254E
:1017600064293A206669666F20697320656D70741C
:10177000790D0A0025733A202573282564293A201B
:101780006F75743A2073697A653A256420646174D0
:10179000615F6C656E3A2564206F75745F636E746B
:1017A0003A25640D0A0000002C0000201F440008A8
:1017B00025733A202573282564293A2064617461D1
:1017C000206973206E756C6C0D0A00003E440008A1
:1017D000280000201744000825733A202573282587
:1017E00064293A20646174615F6C656E2073686F70
:1017F000756C642062652031202D203235352C2017
:101800006275742069733A2025640D0A0000000097
:1018100025733A202573282564293A206669666F66
:101820002069732066756C6C0D0A000025733A20E0
:101830002573282564293A2073697A653A2564203E
:10184000646174615F6C656E3A256420696E5F63E4
:101850006E743A25640D0A000D44000825733A2081
:101860002573282564293A206669666F5F6C656E6A
:101870002073686F756C642062652031202D2032E2
:1018800035350D0A0000000025733A202573282500
:1018900064293A20646174615F6C656E2073686FBF
:1018A000756C642062652031202D203235350D0A9B
:1018B000000000004D15000869140008AF1300086F
:1018C00025733A202573282564293A204F75742002
:1018D0006F66206D656D6F72792E0D0A0000000035
:1018E00025733A202573282564293A204D616C6CB4
:1018F0006F63204F4B2C206669666F206C656E3AD3
:101900002025642C20646174615F6C656E3A20252B
:10191000640D0A001D4800BF0100A0F10100FBD1C9
:10192000704710B538231A4A1AA11DA002F028FBEF
:1019300010BD07E04523244A16A124A002F020FB95
:10194000FFF7E8FFF6E707E054232B4A11A12BA08D
:1019500002F016FBFFF7DEFFF6E707E06323324AEB
:101960000CA132A002F00CFBFFF7D4FFF6E707E072
:101970007223394A07A139A002F002FBFFF7CAFF20
:10198000F6E77047704770477047000080969800F0
:101990004744000849525148616E646C657200000A
:1019A00025733A202573282564293A203D3D3D3D85
:1019B0003D3D3D3D3D3D4E4D495F48616E646C652A
:1019C000720D0A0D0A0000005344000825733A20E6
:1019D0002573282564293A203D3D3D3D3D3D3D3D53
:1019E0003D3D486172644661756C745F48616E6428
:1019F0006C65720D0A0D0A006544000825733A20D3
:101A00002573282564293A203D3D3D3D3D3D3D3D22
:101A10003D3D4D656D4D616E6167655F48616E640A
:101A20006C65720D0A0D0A007744000825733A2090
:101A30002573282564293A203D3D3D3D3D3D3D3DF2
:101A40003D3D4275734661756C745F48616E646CB0
:101A500065720D0A0D0A00008844000825733A20BB
:101A60002573282564293A203D3D3D3D3D3D3D3DC2
:101A70003D3D55736167654661756C745F48616E85
:101A8000646C65720D0A0D0A000000000CB50020A0
:101A9000019000906B48006840F48030694908600C
:101AA00000BF6848006800F4003000900198401CB6
:101AB0000190009818B90198B0F5A06FF1D1614874
:101AC000006810F4003F02D00120009001E00020E7
:101AD00000900098012842D15B48006840F0100057
:101AE000594908600846006820F00300086008466D
:101AF000006840F002000860524840685149486060
:101B00000846406848600846406840F48060486085
:101B10000846406820F47C1048600846406840F45D
:101B2000E81048600846006840F08070086000BF18
:101B30004448006810F0007FFAD04248406820F026
:101B40000300404948600846406840F00200486091
:101B500000BF3C48406800F00C000828F9D10CBDDB
:101B600010B5FFF793FF10BD10B53648006840F080
:101B7000010034490860084640683449084031494A
:101B8000486008460068324908402E490860084607
:101B9000006820F4802008600846406820F4FE00B9
:101BA00048604FF41F008860FFF7DAFF4FF00060D5
:101BB0002849086010BD10B5002100200022214BEB
:101BC0005B6803F00C0121B1042906D0082928D153
:101BD00007E0214B214C236027E01F4B1F4C236063
:101BE00023E0184B5B6803F47010164B5B6803F43A
:101BF0008032022303EB904022B9194B4343174C28
:101C000023600DE00F4B5B6813F4003F04D0144BCE
:101C10004343124C236003E00F4B43430F4C2360BC
:101C200003E00D4B0D4C236000BF00BF054B5B680C
:101C3000C3F303130B4CE15C084B1B68CB40074C10
:101C4000236010BD00100240002002400000FFF899
:101C5000FFFFF6FE08ED00E000127A0034000020DD
:101C600000093D003800002006488047064800472C
:101C7000FEE7FEE7FEE7FEE7FEE7FEE7FEE7FEE73C
:101C8000FEE7FEE7691B0008310100083149014306
:101C9000314A1160704770B5002100230F22C478CB
:101CA0000CB32D4C246804F4E064C4F5E064210A0C
:101CB000C1F10403CA40447804FA03F18478144063
:101CC00021430901254C0678A155047804F01F052D
:101CD0000124AC4005786D114FF0E02606EB850538
:101CE000C5F8004109E0047804F01F050124AC4068
:101CF0001B4D0678761145F8264070BD194A0A40FA
:101D00000243154B1B1F1A60704739B1124A121D4E
:101D100012680243104B1B1D1A6006E00E4A121D8A
:101D2000126882430C4B1B1D1A607047042808D1AF
:101D30004FF0E021096941F004014FF0E022116108
:101D400007E04FF0E021096921F004014FF0E022A3
:101D5000116170470000FA050CED00E000E400E0BE
:101D600080E100E080FFFF1F01684FF6FE72114026
:101D700001600021016041608160C1608C4988423E
:101D800008D18B490839496841F00F01884A083A5F
:101D900051608AE086491431884208D18449083963
:101DA000496841F0F001824A083A51607DE080497B
:101DB0002831884208D17E490839496841F4706168
:101DC0007B4A083A516070E079493C31884208D139
:101DD00077490839496841F47041754A083A5160B9
:101DE00063E073495031884208D171490839496824
:101DF00041F470216E4A083A516056E06C496431F2
:101E0000884208D16A490839496841F47001684A32
:101E1000083A516049E066497831884208D16449FE
:101E20000839496841F07061614A083A51603CE004
:101E30006049884206D1011F096841F00F01021F65
:101E4000116032E05B491431884208D15949091FB9
:101E5000096841F0F001574A121F116025E0554909
:101E60002831884208D15349091F096841F470613B
:101E7000504A121F116018E04E493C31884208D187
:101E80004C49091F096841F470414A4A121F116008
:101E90000BE048495031884207D14649091F09687B
:101EA00041F47021434A121F1160704710B500229F
:101EB000026847F6F0739A430C6A8B6823430C69F7
:101EC00023434C6923438C692343CC6923434C6AE5
:101ED00023438C6A23431A430260CB6843600B6838
:101EE00083604B68C36010BD002101604160816068
:101EF000C160016141618161C161016241628162D0
:101F0000704721B1026842F00102026004E00268F9
:101F10004FF6FE731A40026070471AB103680B4314
:101F2000036002E003688B430360704741607047C1
:101F30000146486880B2704701460020002211F037
:101F4000805F03D01B4B083B1A6802E0184B083B2C
:101F50001A680A4201D0012000E00020704710F00A
:101F6000805F03D01349091F086002E01049083957
:101F70004860704701460020002211F0805F03D0C6
:101F80000C4B083B1A6802E0094B083B1A680A42EE
:101F900001D0012000E00020704710F0805F03D0E6
:101FA0000449091F086002E0014908394860704788
:101FB000080002400804024001460020FE4A106862
:101FC00000F03800084310607047FB49096821F0B1
:101FD0000801F94A11601146096801431160704710
:101FE000F549096821F01001F34A116011460968AA
:101FF000014311607047F148EF494860F04848607C
:102000007047EE48EC494860ED4848607047EA4840
:10201000006940F08000E84908617047E6480069BF
:1020200040F08000E449086170470420E249C96833
:1020300011F0010F01D001200EE0DF49C96811F055
:10204000040F01D0022007E0DB49C96811F0100F2E
:1020500001D0032000E00420704700B502460423AD
:10206000FFF7E3FF034603E0FFF7DFFF0346521EDF
:10207000012B01D1002AF7D102B90523184600BD72
:1020800030B5044604254FF43020FFF7E6FF05463F
:10209000042D17D1C848006940F00200C649086104
:1020A00008464461006940F0400008614FF4302068
:1020B000FFF7D3FF0546C048006941F6FD710840AF
:1020C000BD490861284630BD10B504244FF43020C6
:1020D000FFF7C3FF0446042C16D1B748006940F04F
:1020E0000400B54908610846006940F040000861F5
:1020F0004FF43020FFF7B1FF0446AF48006941F6C6
:10210000FB710840AC490861204610BD00B502468D
:102110000423FFF78AFF034603E0FFF786FF034629
:10212000521E012B01D1002AF7D102B9052318460E
:1021300000BD10B504244FF43020FFF7E7FF04463C
:10214000042C16D19C48006940F004009A490861AB
:102150000846006940F0400008614FF43020FFF766
:10216000D5FF04469448006941F6FB710840924946
:102170000861204610BD00208F49C96911F0020F87
:1021800001D0012000E00020704730B5A5250424CF
:10219000FFF7F1FF00B100254FF43020FFF75DFF9E
:1021A0000446042C3AD18548834988608448886075
:1021B0000846006940F0200008610846006940F0C8
:1021C000400008614FF43020FFF747FF0446042C1D
:1021D0001BD17948006941F6DF71084076490861F2
:1021E0000846006940F01000086176480580E0026A
:1021F000FFF733FF0446052C10D06F48006941F605
:10220000EF7108406C49086108E0052C06D06A4867
:10221000006941F6EF71084067490861204630BD0A
:1022200078B506460C46042500200090E802FFF72A
:1022300014FF0546042D24D15F48006940F00100D9
:102240005D4908613480E802FFF707FF0546042D69
:1022500010D1B01C0090200C00990880E802FFF714
:10226000FCFE05465448006941F6FE71084052499B
:10227000086106E05048006941F6FE7108404E4989
:102280000861284678BD70B504460D460426F00264
:10229000FFF7E3FE0646042E11D14748006940F0DF
:1022A0000100454908612580F002FFF7D6FE064689
:1022B0004148006941F6FE7108403F4908613046D7
:1022C00070BD70B505460E460424E002FFF7C5FE5A
:1022D0000446042C17D1394837498860384888604B
:1022E0000846006940F0100008612E80E002FFF708
:1022F000B4FE0446052C06D02F48006941F6EF7164
:1023000008402D490861204670BD2DE9F043044680
:102310004FF6FF763746B046B1460425E443E6B2B1
:10232000C4F30727C4F307484FEA1469E802FFF72C
:1023300094FE0546042D49D120481F498860204855
:1023400088600846006940F010000861FF2E06D042
:102350001C4808300680E802FFF77FFE0546042D82
:1023600008D1FF2F06D017480A300780E802FFF790
:1023700074FE0546042D0AD1B8F1FF0F07D01148AD
:102380000C30A0F80080E802FFF767FE0546042D38
:102390000AD1B9F1FF0F07D00A480E30A0F800901B
:1023A000E802FFF75AFE0546052D0FD002480069E6
:1023B00041F6EF71084007E0002002402301674525
:1023C000AB89EFCD00F8FF1F664908612846BDE8DC
:1023D000F08330B5054604244FF43020FFF73DFE6E
:1023E0000446042C41D160485E4988605F4888609B
:1023F0000846006940F0200008610846006940F086
:10240000400008614FF43020FFF727FE0446042CFB
:1024100022D15448006941F6DF71084051490861F2
:102420000846006940F0100008611DB100205049C5
:10243000088002E0A5204E4908804FF43020FFF7C5
:102440000CFE0446052C10D04648006941F6EF7199
:1024500008404449086108E0052C06D0414800695D
:1024600041F6DF7108403F490861204630BDF0B5B4
:1024700005460E46174604243B483A4988603B48C7
:102480008860E002FFF7E9FD0446042C19D13548C5
:10249000006940F010003349086147F0F80030430C
:1024A00028433349891C0880E002FFF7D6FD044623
:1024B000052C06D02B48006941F6EF7108402949E8
:1024C00008612046F0BD2748C0698008704725484C
:1024D000006A704700202349096811F0200F01D0DD
:1024E000012000E00020704729B11E4A1269024312
:1024F0001C4B1A6104E01B4A12698243194B1A6192
:10250000704701460020012908D1164AD26912F00D
:10251000010F01D0012008E0002006E0114AD26836
:102520000A4201D0012000E0002070470D49C86038
:10253000704704200B49C96811F0010F01D0012038
:102540000EE00849C96811F0040F01D0022007E02D
:102550000449C96811F0100F01D0032000E00420E5
:10256000704700000020024023016745AB89EFCD92
:1025700000F8FF1F10B50446CA48844208D1012163
:10258000042000F027FB0021042000F023FB46E09C
:10259000C548844208D10121082000F01BFB00211E
:1025A000082000F017FB3AE0C048844208D101211E
:1025B000102000F00FFB0021102000F00BFB2EE09C
:1025C000BB48844208D10121202000F003FB0021F8
:1025D000202000F0FFFA22E0B648844208D1012111
:1025E000402000F0F7FA0021402000F0F3FA16E056
:1025F000B148844208D10121802000F0EBFA00218B
:10260000802000F0E7FA0AE0AC48844207D10121BB
:10261000801500F0DFFA0021A01500F0DBFA10BDF4
:1026200010B50121084600F0D5FA0021012000F084
:10263000D1FA10BD2DE9F041024600250026002008
:1026400000230024002791F803C00CF00F0591F837
:1026500003C01CF0100F03D091F802C04CEA05052E
:1026600091F800C0BCF1000F31D0146800202BE0BD
:102670004FF0010C0CFA00F3B1F800C00CEA0306AD
:102680009E4220D183004FF00F0C0CFA03F7BC439D
:1026900005FA03FC4CEA040491F803C0BCF1280FCE
:1026A00006D14FF0010C0CFA00FCC2F814C00AE08D
:1026B00091F803C0BCF1480F05D14FF0010C0CFAA2
:1026C00000FCC2F810C0401C0828D1D31460B1F837
:1026D00000C0BCF1FF0F34DD546800202EE000F193
:1026E000080C4FF0010808FA0CF3B1F800C00CEA2E
:1026F00003069E4221D183004FF00F0C0CFA03F722
:10270000BC4305FA03FC4CEA040491F803C0BCF195
:10271000280F05D100F1080C08FA0CF8C2F8148053
:1027200091F803C0BCF1480F07D100F1080C4FF03D
:10273000010808FA0CF8C2F81080401C0828CED313
:102740005460BDE8F0814FF6FF7101800221817075
:102750000421C17070470246002093680B4201D0EB
:10276000012000E0002070470146886880B2704771
:1027700002460020D3680B4201D0012000E0002077
:1027800070470146C86880B2704701617047416177
:1027900070470AB1016100E041617047C160704754
:1027A0004FF480320A438261816182618269826969
:1027B000704702460020424B18684FF6807318405D
:1027C00040EA021008433E4B186070473D49C8611B
:1027D0007047F0B50A46002300240021002500F0D0
:1027E0000046B6F1004F02D1354EF16901E0344E9A
:1027F0007168C0F3034583B200F44016B6F5401F7C
:1028000008D121F070612E4E766826F070662C4F4C
:102810007E6012E000F48016B6F5801F06D1032614
:1028200006FA05F4A14341F0706106E0460D360159
:1028300003FA06F6B14341F0706122B1460D36014C
:1028400003FA06F6314300F00046B6F1004F02D11C
:102850001B4EF16101E01A4E7160F0BD30B50022EF
:102860008B071C0F0F2303FA04F2154B08338C104F
:1028700053F824309343124C08348D1044F825301B
:1028800023468C1053F824308C07240F00FA04F4EC
:1028900023430B4C08348D1044F8253030BD0A49D1
:1028A0000860704700080140000C01400010014022
:1028B0000014014000180140001C014000200140AC
:1028C0000000014000002042DC002042DD4800689A
:1028D00040F00100DB49086008464068DA490840DA
:1028E000D849486008460068D8490840D54908607A
:1028F0000846006820F4802008600846406820F4FC
:10290000FE0048604FF41F0088607047CD49096899
:1029100021F48031CB4A11601146096821F48021ED
:102920001160B0F5803F03D0B0F5802F0ED106E0E6
:10293000C449096841F48031C24A116007E0C149C5
:10294000096841F4A021BF4A116000E000BF00BF48
:10295000704710B501460022002300204A11012AC9
:1029600002D1B84C236806E0022A02D1B54C236A92
:1029700001E0B44C636A01F01F02012494401C4240
:1029800001D0012000E0002010BD38B500200090EB
:102990000024002500BF3120FFF7DBFF054600982B
:1029A000401C00900098B0F5A06F01D0002DF2D02F
:1029B0003120FFF7CEFF08B1012400E000242046BB
:1029C00038BD014600209F4A106820F0F80040EA18
:1029D000C100106070479E490860704702460020A1
:1029E000984B586820F47C1042EA01031843954B39
:1029F0005860704796490866704701460020914A22
:102A0000506820F003000843506070478D484068CC
:102A100000F00C007047014600208A4A506820F000
:102A2000F00008435060704701460020854A506816
:102A300020F4E06008435060704701460020814A5E
:102A4000506820F4605040EAC1005060704729B1DE
:102A50007C4A527A02437B4B5A7204E0794A527A9A
:102A60008243784B5A7270477A4908607047014632
:102A70000020744A506820F440400843506070477A
:102A80000021754A11706F4A82F82010012802D087
:102A9000042808D103E001216F4A117004E00521E8
:102AA0006D4A117000E000BF00BF70476B490860BD
:102AB00070476449096A0143624A11627047674975
:102AC00044390860704730B50021002200240023FB
:102AD0005C4D6D6805F00C0121B1042905D0082971
:102AE00023D105E05E4D056022E05D4D05601FE0ED
:102AF000544D6D6805F47012524D6D6805F48034C4
:102B0000022505EB92421CB9564D554305600BE07A
:102B10004C4D6D6815F4003F03D0524D5543056090
:102B200002E04F4D5543056002E04D4D056000BF8A
:102B300000BF444D6D6805F0F00109094A4D6B5C1A
:102B40000568DD4045603F4D6D6805F4E061090AA8
:102B5000454D6B5C4568DD4085603A4D6D6805F418
:102B60006051C90A404D6B5C4568DD40C560354D1C
:102B70006D6805F44041890B3C4D6B5CC568B5FB45
:102B8000F3F5056130BD29B12E4A526902432D4B40
:102B90005A6104E02B4A526982432A4B5A617047BA
:102BA00029B1284A92690243264B9A6104E0254ADA
:102BB00092698243234B9A61704729B1214AD269B5
:102BC0000243204BDA6104E01E4AD26982431D4B66
:102BD000DA61704729B11B4AD2680243194BDA60A7
:102BE00004E0184AD2688243164BDA60704729B174
:102BF000144A12690243134B1A6104E0114A126924
:102C00008243104B1A61704714494039086070477D
:102C10000F49C86470470B49C87170470948406A3A
:102C200040F0807007494862704701460020054A1D
:102C300092680A4201D0012000E00020704701495B
:102C400088727047001002400000FFF8FFFFF6FE98
:102C500000004242D800424220100240800442421A
:102C600000127A0000093D004800002058000020B2
:102C700010B50446FE48844208D10121C014FFF774
:102C8000A9FF0021E014FFF7A5FFC4E0B4F1804FD5
:102C900008D101210846FFF7AAFF00210120FFF714
:102CA000A6FFB8E0F348844208D101210220FFF7D3
:102CB0009EFF00210220FFF79AFFACE0EE4884421D
:102CC00008D101210420FFF792FF00210420FFF723
:102CD0008EFFA0E0E948844208D101210820FFF7D7
:102CE00086FF00210820FFF782FF94E0E448844239
:102CF00008D101211020FFF77AFF00211020FFF7F3
:102D000076FF88E0DF48844208D101212020FFF7C8
:102D10006EFF00212020FFF76AFF7CE0DA48844242
:102D200008D101214014FFF755FF00216014FFF77F
:102D300051FF70E0D548844209D10121C804FFF752
:102D400049FF00214FF40020FFF744FF63E0D04823
:102D5000844209D101210805FFF73CFF00214FF40F
:102D60008010FFF737FF56E0CA48844209D101219D
:102D70004805FFF72FFF00214FF40010FFF72AFF4F
:102D800049E0C548844208D101214020FFF72FFFC8
:102D900000214020FFF72BFF3DE0C048844208D1CE
:102DA00001218020FFF723FF00218020FFF71FFF74
:102DB00031E0BB48844208D101218015FFF717FF9D
:102DC0000021A015FFF713FF25E0B648844209D182
:102DD00001210804FFF7FEFE00214FF48030FFF7C9
:102DE000F9FE18E0B048844209D101214804FFF7F8
:102DF000F1FE00214FF40030FFF7ECFE0BE0AB4892
:102E0000844208D101218804FFF7E4FE00214FF439
:102E10008020FFF7DFFE10BD00220288944B98420D
:102E20000ED0994B98420BD0B0F1804F08D0914B07
:102E3000984205D0904B984202D0904B984204D1D2
:102E40004FF68F731A404B881A438D4B984207D028
:102E50008C4B984204D04FF6FF431A40CB881A435C
:102E600002808B8883850B880385814B98420BD029
:102E7000854B984208D08B4B984205D08A4B98429C
:102E800002D08A4B984201D10B7A038601238382B8
:102E9000704770B5002400220023058C4FF6FE76A3
:102EA00035400584028C8388048B4FF68F752C4047
:102EB000B51E2C400D882C43751E2A400D892A43CF
:102EC0004D882A436A4DA8420BD06F4DA84208D0C6
:102ED000744DA84205D0744DA84202D0734DA8424B
:102EE00013D14FF6F7752A404D892A434FF6FB75EB
:102EF0002A408D882A434FF6FF652B404FF6FF5539
:102F00002B408D892B43CD892B4383800483CD882F
:102F10008586028470BD70B5002400220023058CD4
:102F20004FF6EF7635400584028C8388048B48F693
:102F3000FF752C404FF6FF452C400D884FF6FF766D
:102F400006EA05252C434FF6DF752A400D8906EA6F
:102F500005152A434D8806EA05152A43444DA84223
:102F600002D0494DA8421DD14FF67F752A404D89A8
:102F70004FF6FF7606EA05152A434FF6BF752A403D
:102F80008D8806EA05152A434FF6FF352B404FF290
:102F9000FF752B408D8906EA85052B43CD8906EA0E
:102FA00085052B4383800483CD880587028470BD0B
:102FB00070B5002400220023058C4FF6FF663540D3
:102FC0000584028C8388848B4FF68F752C404FF6D6
:102FD000FC752C400D882C434FF6FF552A400D8977
:102FE0004FF6FF7606EA05252A434D8806EA0525B1
:102FF0002A431F4DA84202D0234DA8421DD14FF2B3
:10300000FF752A404D894FF6FF7606EA05252A43CB
:103010004FF6FF352A408D8806EA05252A434EF6ED
:10302000FF752B404DF6FF752B408D8906EA05157F
:103030002B43CD8906EA05152B4383808483CD88F5
:103040008587028470BD70B5002200230024058CA2
:103050004EF6FF7635400584038C8488828B48F6D3
:10306000FF752A404FF6FF452A400D8820E00000FA
:10307000002C01400004004000080040000C00400B
:10308000001000400014004000340140004C01409A
:10309000005001400054014000180040001C004056
:1030A0000020004000400140004401400048014031
:1030B0004FF6FF7606EA05252A434DF6FF752B40AD
:1030C0000D8906EA05352B434D8806EA05352B4365
:1030D000FA4DA84202D0FA4DA84208D14BF6FF752E
:1030E0002C408D894FF6FF7606EA85152C438480A7
:1030F0008283CD88A0F84050038470BD828B4FF24C
:10310000FF331A408283828B4FF6FF7303EA012359
:103110001A4382837047F0B50C4615460022002101
:103120000026078C4EF6FF7C07EA0C070784828B8B
:10313000018C4FF6FF7707EA043640F6FF473A4026
:103140004FF6FF7707EA05273A434FF6FF7707EA7E
:1031500003373A43D94FB8420ED0D94FB8420BD0BB
:10316000B0F1804F08D0D74FB84205D0D64FB84203
:1031700002D0D64FB84206D14DF6FF77394046F41B
:103180008057394305E047F6FF57394044F48057EC
:10319000394382830184F0BD828B4FF6F3731A406A
:1031A0008283828B0A4382837047F0B50C461546B2
:1031B000002200210026078C4FF6FF6C07EA0C075F
:1031C0000784828B018C4FF6FF7707EA04264FF6BF
:1031D0000C773A404FF6FF7707EA03172F433A433D
:1031E000B64FB8420ED0B64FB8420BD0B0F1804FB8
:1031F00008D0B44FB84205D0B34FB84202D0B34F55
:10320000B84206D14FF6FF57394046F4807739432C
:1032100005E04FF2FF57394044F480773943828309
:103220000184F0BD028B4FF2FF331A400283028B00
:103230004FF6FF7303EA01231A4302837047F0B588
:103240000C461546002200210026078C4FF6EF7C25
:1032500007EA0C070784028B018C4FF6FF7707EA19
:10326000041640F6FF473A404FF6FF7707EA033768
:103270003A434FF6FF7707EA05273A438F4FB842A4
:103280000ED08F4FB8420BD0B0F1804F08D08D4F89
:10329000B84205D08C4FB84202D08C4FB84206D10C
:1032A0004FF6DF77394046F01007394305E04FF617
:1032B0005F77394044F01007394302830184F0BD41
:1032C000028B4FF6F3731A400283028B0A43028388
:1032D0007047F0B50C46154600220021068C4FF6CB
:1032E000FE773E400684028B018C4FF60C7632400E
:1032F0007E1C06EA03162E433243704EB0420ED0B7
:103300006F4EB0420BD0B0F1804F08D06D4EB0423E
:1033100005D06D4EB04202D06C4EB04206D14FF691
:10332000FD76314044F00106314305E04FF6F57675
:10333000314044F00106314302830184F0BD70B591
:1033400005460C465D4885420ED05D4885420BD04F
:10335000B5F1804F08D05B48854205D05A48854278
:1033600002D05A48854200D100E000BF208850B901
:103370002389A28861882846FFF7ABFFE1882846A9
:10338000FFF79EFF25E0208804280AD12389A28820
:1033900061882846FFF753FFE1882846FFF742FF80
:1033A00017E0208808280AD12389A2886188284646
:1033B000FFF7FBFEE1882846FFF7EEFE09E02389D0
:1033C000A28861882846FFF7A6FEE1882846FFF715
:1033D00095FE70BD2DE9F04105460C4600260127FB
:1033E000608808B9022600E00026A088012801D1E3
:1033F000022700E001272088A0B92389A2886188DC
:103400002846FFF766FFE1882846FFF759FF238922
:103410003A4631462846FFF712FFE1882846FFF773
:1034200001FF13E02389A28861882846FFF707FF80
:10343000E1882846FFF7F6FE23893A4631462846BA
:10344000FFF747FFE1882846FFF73AFFBDE8F08124
:103450000A884B881A438B881A43CB881A430B89F6
:103460001A434B891A438B891A43A0F844207047AA
:103470004FF6FF71818000210180C180418001727F
:1034800070470021018041808180C180018141819C
:103490008181C181704700210180418001218180AB
:1034A0000021C1800181704700210180418081801D
:1034B000C18001814181818170470000002C014061
:1034C000003401400004004000080040000C0040AF
:1034D00021B1028842F00102028004E002884FF626
:1034E000FE731A400280704731B1B0F8442042F4B4
:1034F0000042A0F8442005E0B0F84420C2F30E02D8
:10350000A0F8442070471AB183890B43838102E0FD
:1035100083898B43838170478182704741EA02032C
:10352000A0F8483070471AB183890B43838102E0C9
:1035300083898B438381704701894FF6F87211406C
:10354000018170470A46002101894FF68F731940A7
:1035500011430181704730B504460D462946204687
:10356000FFF7F0FF208940F00700208130BD2DE9F2
:10357000F04104460D4616461F46602D06D13B46D7
:10358000012231462046FFF75AFE05E03B46012264
:1035900031462046FFF79DFE29462046FFF7D2FF21
:1035A000208940F007002081BDE8F08130B50C464D
:1035B00000210189C9B24FF6FF7505EA03251543BD
:1035C00025432943018130BD2DE9F04105460E46D2
:1035D00017469846002443463A4631462846FFF7A8
:1035E000E5FF2C894FF6F870044044F007044FF6CD
:1035F0008F70044044F070042C81BDE8F081F0B578
:1036000004460D4616461F463B463246294620468E
:10361000FFF7CCFF208940F480402081F0BD018578
:10362000828270470A46002101884FF68F73194045
:10363000114301807047F0B50C4615461E46002127
:10364000002200230189028B038C4FF6F877394062
:1036500021434FF6FC473A4040F201173A434FF6F8
:10366000DD773B404FF6FF7707EA06172F433B43D2
:10367000018102830384F0BD0A460021018B4FF6CD
:103680008F7319401143018370470A460021018B53
:1036900048F6FF7319404FF6FF7303EA02231943FC
:1036A000018370470A460021818B4FF68F731940C2
:1036B0001143818370470A460021818B48F6FF73CE
:1036C00019404FF6FF7303EA0223194381837047C1
:1036D00021B1028842F08002028004E002884FF6A5
:1036E0007F731A400280704721B1828842F0040241
:1036F000828004E082884FF6FB731A408280704714
:1037000021B1828842F00802828004E082884FF66C
:10371000F7731A408280704721B1828842F001021B
:10372000828004E082884FF6FE731A4082807047E0
:103730000A460021018B4FF6F773194011430183AC
:1037400070470A460021018B4FF2FF7319404FF674
:10375000FF7303EA02231943018370470A460021DD
:10376000818B4FF6F77319401143818370470A46E6
:103770000021818B4FF2FF7319404FF6FF7303EA6C
:1037800002231943818370470A460021018B4FF6BB
:10379000FB7319401143018370470A460021018BD6
:1037A0004FF6FF3319404FF6FF7303EA0223194324
:1037B000018370470A460021818B4FF6FB73194045
:1037C0001143818370470A460021818B4FF6FF33F6
:1037D00019404FF6FF7303EA0223194381837047B0
:1037E0000A460021018B4FF67F7319401143018374
:1037F00070470A460021018BC1F30E014FF6FF739B
:1038000003EA02231943018370470A460021818B92
:103810004FF67F7319401143818370470A46002198
:10382000818BC1F30E014FF6FF7303EA02231943A4
:10383000818370470A460021018C4FF6FD731940C1
:103840001143018470470A460021018C4FF6F7733B
:1038500019401143018470470A460021018C4FF63C
:10386000DF7319404FF6FF7303EA02131943018413
:1038700070470A460021018C4FF67F7319404FF6BE
:10388000FF7303EA02131943018470470A460021BB
:10389000018C4FF6FF5319404FF6FF7303EA0223E2
:1038A0001943018470470A460021018C4FF2FF73CF
:1038B00019404FF6FF7303EA02231943018470474E
:1038C0000A460021018C4DF6FF7319404FF6FF7335
:1038D00003EA023319430184704730B50023012401
:1038E0008C40A3B2048C9C430484048C02FA01F53E
:1038F000ADB22C43048430BD30B5002304248C4089
:10390000A3B2048C9C430484048C02FA01F5ADB28A
:103910002C43048430BD70B50346002000241846B3
:10392000183001258D40ACB21D8CA5431D8409B112
:10393000082909D100EB6100056825F070050560D4
:103940000568154305600EE00D1FC5F34E052844BC
:10395000056825F4E045056005684FF6FF7606EA40
:1039600002263543056070BD21B1028842F0020293
:10397000028004E002884FF6FD731A40028070470F
:1039800021B1028842F00402028004E002884FF66E
:10399000FB731A400280704721B1828842F0800296
:1039A000828004E082884FF67F731A4082807047DD
:1039B00002884FF6F7731A40028002880A43028099
:1039C000704782884FF68F731A40828082880A433C
:1039D0008280704702894FF6F8731A40028102898B
:1039E0000A430281704702894FF67F731A400281B1
:1039F00002890A430281704781847047818570473C
:103A0000818670470187704781877047A0F8401012
:103A1000704702884FF6FF431A40028002880A432B
:103A2000028070470146888E70470146088F7047B4
:103A30000146888F70470146B1F840007047014643
:103A4000888C70470146088D704702460020138A13
:103A50000B4201D0012000E000207047CA430282DF
:103A6000704730B50246002000230024158A05EA7D
:103A70000103958905EA010413B10CB1012000E0AE
:103A8000002030BDCA4302827047000010B50446D2
:103A9000FB48844209D101218803FFF79BF80021EC
:103AA0004FF48040FFF796F832E0F648844209D19F
:103AB00001214804FFF79BF800214FF40030FFF785
:103AC00096F825E0F048844209D101218804FFF7E7
:103AD0008EF800214FF48020FFF789F818E0EB48BA
:103AE000844209D10121C804FFF781F800214FF475
:103AF0000020FFF77CF80BE0E548844208D1012163
:103B00000805FFF774F800214FF48010FFF76FF8F5
:103B100010BD2DE9F04786B005460E460024A246AA
:103B200000BFA1460027B08900B100BF2F462C8AF4
:103B30004CF6FF700440F08804432C82AC894EF6AA
:103B4000F3100440B0883189084371890843044365
:103B5000AC81AC8A4FF6FF400440B0890443AC828C
:103B600001A8FEF7B0FFC648874202D1DDF810A0D9
:103B700001E0DDF80CA0A88910F4004F08D00AEB92
:103B8000CA0000EB0A1031684900B0FBF1F807E009
:103B90000AEBCA0000EB0A1031688900B0FBF1F8AB
:103BA0006420B8FBF0F004012009642101FB1089B6
:103BB000A88910F4004F08D0322000EBC900B0FBF8
:103BC000F1F000F00700044308E0322000EB091098
:103BD0006421B0FBF1F000F00F0004432C8106B02B
:103BE000BDE8F0874FF41651016000218180C1804B
:103BF00001810C21418100218181704710B502466D
:103C00000020108A4FF2FF0318400B884C88234392
:103C10008C882343CC8823431843108210BD002195
:103C2000018041808180C180704721B1828942F446
:103C30000052828104E082894DF6FF731A4082812E
:103C40007047F0B503460024002600250020A1F5AA
:103C500010676A3F00D100BF1846C1F3421401F05B
:103C60001F06012707FA06F5012C01D10C3004E0EC
:103C7000022C01D1103000E014301AB107682F4334
:103C8000076002E00768AF430760F0BD1AB1838A9E
:103C90000B43838202E0838A8B4383827047028ACC
:103CA0004FF6F0731A400282028A0A43028270477A
:103CB00082894FF2FF731A40828182890A4382818E
:103CC000704721B1828942F00202828104E0828938
:103CD0004FF6FD731A4082817047028A4FF6DF73F8
:103CE0001A400282028A0A430282704721B1028A84
:103CF00042F48042028204E0028A4BF6FF731A40CB
:103D000002827047C1F308028280704701468888AA
:103D1000C0F308007047818941F00101818170473B
:103D2000028BD2B20283028B42EA012202837047E5
:103D3000028B02F47F420283028B0A4302837047A4
:103D400021B1828A42F02002828204E0828A4FF608
:103D5000DF731A408282704721B1828A42F01002DA
:103D6000828204E0828A4FF6EF731A4082827047A3
:103D700021B1828A42F00802828204E0828A4FF6F0
:103D8000F7731A408282704721B1828942F400425F
:103D9000828103E08289C2F30E028281704721B1E1
:103DA000828A42F40062828204E0828A4FF2FF73C8
:103DB0001A4082827047828A4FF6FB731A408282D1
:103DC000828A0A438282704721B1828A42F00202CB
:103DD000828204E0828A4FF6FD731A408282704725
:103DE00002460020B1F5007F00D100BF13880B42CE
:103DF00001D0012000E00020704701F40072B2F50C
:103E0000007F00D100BFCA430280704770B50246F0
:103E10000024002300250020A1F510666A3E00D191
:103E200000BFC1F3421501F01F03012606FA03F398
:103E3000012D02D19689334006E0022D02D1168A67
:103E4000334001E0968A33400C12012606FA04F44E
:103E50001688344013B10CB1012000E0002070BD81
:103E600010B500220023A1F510646A3C00D100BF08
:103E70000A1201249440A3B2DC43048010BD000068
:103E8000003801400044004000480040004C004021
:103E90000050004040EA01039B0703D009E008C935
:103EA000121F08C0042AFAD203E011F8013B00F8FF
:103EB000013B521EF9D270472DE9F05F0546002004
:103EC00092469B4688460646814640241BE028468B
:103ED00041464746224600F042F853465A46C01A29
:103EE000914110D311461846224600F029F82D1AA8
:103EF00067EB01084F4622460120002100F020F820
:103F000017EB00094E41201EA4F10104DFDC4846F6
:103F100031462A464346BDE8F09F0000064C074D57
:103F200006E0E06840F0010394E807009847103489
:103F3000AC42F6D3FCF700F99C440008BC440008EE
:103F4000202A04DB203A00FA02F100207047914059
:103F5000C2F1200320FA03F3194390407047202A4E
:103F600004DB203A21FA02F00021704721FA02F323
:103F7000D040C2F12002914008431946704700002A
:103F80000FB4054B10B503A9044A029800F018F8C5
:103F900010BC5DF814FB0000EF0800085C00002076
:103FA00002E008C8121F08C1002AFAD17047704702
:103FB000002001E001C1121F002AFBD17047000060
:103FC0002DE9FF4F8DB09B460F460446002638E191
:103FD000252801D00F9959E00025641C9D49A84669
:103FE00001222378203B02FA03F0084202D0054365
:103FF000641CF6E720782E2817D114F8010F45F03D
:1040000004052A280ED06FF02F022078A0F130018D
:1040100009290AD808EB880102EB410100EB0108ED
:10402000641CF2E757F8048B641C20786C280DD0D0
:1040300004DC4C2812D06A2811D104E074280DD079
:104040007A280CD10AE045F4001507E0617845F4C0
:104050008015814202D1641C05F58015641C22780C
:10406000692A46D008DC002A70D0582A69D0632A11
:1040700011D0642A08D13CE0702A69D0732A14D088
:10408000752A5CD0782A5CD00F9910465A46904722
:1040900006F10106D4E017F8040B8DF800000020AB
:1040A0008DF80100E946012003E057F8049B4FF02A
:1040B000FF3069074FF0000501D40AE06D1C45454B
:1040C0000DDA8542FADB19F805100029F6D106E071
:1040D0006D1C8542FCDB19F805100029F8D12E442F
:1040E00004E019F8010B5A460F9990476D1EF8D25B
:1040F000A6E00A200021CDE90801C5F302500228FC
:104100000BD001CFC11700290EDA4FF0000CD0EB15
:104110000C006CEB01012D2309E007F1070727F0E4
:104120000707F7E80201EEE72B0504D52B238DF8EE
:104130002830012330E0EB072ED02023F7E70A20B8
:1041400000E010200021CDE9080109E07DE0FFE753
:104150001020002145F00405CDE908014FF00808C2
:10416000C5F3025002281BD001CF00214FF0000AF6
:104170002B0712D5702A19D0DDE908C38CF0100C7A
:104180005CEA030C09D150EA010306D030238DF814
:1041900028308DF8292002239A46582A10D00AE0A8
:1041A000FF1D27F00707F7E80201DFE740228DF83F
:1041B00028204FF0010A28A20DF120090B9209E0F6
:1041C0002AA2F9E7DDE90823FFF776FE0B9B9B5C4B
:1041D00009F8013D50EA0102F4D1ADEB090000F10C
:1041E00020000890680701D44FF00108089988451D
:1041F00002DDA8EB010000E000208046002506E07B
:104200000AA85A46405D0F999047761C6D1C55458B
:10421000F6DB04E030205A460F999047761CB8F13F
:104220000001A8F10108F5DC05E019F8010B5A4678
:104230000F999047761C0899481E08900029F4DCD5
:10424000641C207800287FF4C3AE11B03046BDE86E
:10425000F08F000009280100303132333435363711
:1042600038396162636465660000000030313233C2
:104270003435363738394142434445460000000062
:1042800010B5002821D0114B001F0022196803E04F
:10429000814203D80A4649680029F9D152B113680E
:1042A000841A9C4204D1006818441060104602E051
:1042B000506000E0186039B102680B1A934203D1D4
:1042C0000B681A4402604968416010BD600000201C
:1042D000F0B50B30154D20F007010024144A0FE013
:1042E00003688B420BD38B4205D95E1A431847688B
:1042F000C3E9006700E04368136002C004E0021DE8
:1043000010680028ECD12046002802D1286808B1A6
:104310000020F0BD064A07481060074A121A22F032
:104320000702C0E9002401202860D7E764000020CC
:10433000600000201C010020181100206D61696ED2
:104340005F696E697400756172745F726561645F44
:1043500070726F6300636C6B5F7072696E74006380
:104360006C6B5F74657374007072696E745F696EF4
:104370006974007072746100756172745F7772693C
:1043800074655F6461656D6F6E00756172745F72F4
:104390006561645F6461656D6F6E00756172745F05
:1043A000777269746500756172745F696E69740013
:1043B000756172745F636C6F736500756172745FB1
:1043C0006770696F5F696E697400756172745F759B
:1043D000736172745F696E697400756172745F6491
:1043E0006D615F696E697400756172745F646D619F
:1043F0005F777269746500756172745F757361725D
:10440000745F69727168616E646C6572006669667A
:104410006F5F696E6974006669666F5F696E0066DA
:1044200069666F5F6F7574006669666F5F67657454
:104430005F6F75740069735F656D707479005F6993
:10444000735F66756C6C004E4D495F48616E646CBD
:10445000657200486172644661756C745F48616E94
:10446000646C6572004D656D4D616E6167655F4896
:10447000616E646C6572004275734661756C745F41
:1044800048616E646C65720055736167654661755D
:104490006C745F48616E646C65720000BC44000817
:1044A0000000002068000000A03F0008244500082C
:1044B00068000020B0140000B03F000800000000B9
:1044C00000000000000000000000000000000000EC
:1044D00000000000000000000000000000000000DC
:1044E00000000000000000000000000000000000CC
:1044F00000A24A04000000000000000001020304C2
:104500000607080900000000010203040102030479
:104510000607080902040608000000000000000069
:044520000000000097
:0400000508000131BD
:00000001FF
